{
  "_format": "hh-sol-artifact-1",
  "contractName": "TokenLocker",
  "sourceName": "contracts/TokenLocker.sol",
  "abi": [
    {
      "anonymous": false,
      "inputs": [
        {
          "indexed": false,
          "internalType": "address",
          "name": "previousAdmin",
          "type": "address"
        },
        {
          "indexed": false,
          "internalType": "address",
          "name": "newAdmin",
          "type": "address"
        }
      ],
      "name": "AdminChanged",
      "type": "event"
    },
    {
      "anonymous": false,
      "inputs": [
        {
          "indexed": true,
          "internalType": "address",
          "name": "beacon",
          "type": "address"
        }
      ],
      "name": "BeaconUpgraded",
      "type": "event"
    },
    {
      "anonymous": false,
      "inputs": [
        {
          "indexed": true,
          "internalType": "uint256",
          "name": "lockID",
          "type": "uint256"
        },
        {
          "indexed": true,
          "internalType": "address",
          "name": "token",
          "type": "address"
        },
        {
          "indexed": true,
          "internalType": "address",
          "name": "owner",
          "type": "address"
        },
        {
          "indexed": false,
          "internalType": "uint256",
          "name": "returnedAmount",
          "type": "uint256"
        },
        {
          "indexed": false,
          "internalType": "uint256",
          "name": "penaltyAmount",
          "type": "uint256"
        }
      ],
      "name": "EmergencyWithdraw",
      "type": "event"
    },
    {
      "anonymous": false,
      "inputs": [
        {
          "indexed": true,
          "internalType": "address",
          "name": "user",
          "type": "address"
        },
        {
          "indexed": true,
          "internalType": "uint256",
          "name": "lockId",
          "type": "uint256"
        },
        {
          "indexed": false,
          "internalType": "uint256",
          "name": "amount",
          "type": "uint256"
        },
        {
          "indexed": false,
          "internalType": "uint256",
          "name": "timestamp",
          "type": "uint256"
        }
      ],
      "name": "FundsAddedToLocker",
      "type": "event"
    },
    {
      "anonymous": false,
      "inputs": [
        {
          "indexed": false,
          "internalType": "uint8",
          "name": "version",
          "type": "uint8"
        }
      ],
      "name": "Initialized",
      "type": "event"
    },
    {
      "anonymous": false,
      "inputs": [
        {
          "indexed": true,
          "internalType": "address",
          "name": "previousOwner",
          "type": "address"
        },
        {
          "indexed": true,
          "internalType": "address",
          "name": "newOwner",
          "type": "address"
        }
      ],
      "name": "OwnershipTransferred",
      "type": "event"
    },
    {
      "anonymous": false,
      "inputs": [
        {
          "indexed": false,
          "internalType": "uint256",
          "name": "oldFee",
          "type": "uint256"
        },
        {
          "indexed": false,
          "internalType": "uint256",
          "name": "newFee",
          "type": "uint256"
        }
      ],
      "name": "PenaltyFeeUpdated",
      "type": "event"
    },
    {
      "anonymous": false,
      "inputs": [
        {
          "indexed": true,
          "internalType": "uint256",
          "name": "lockID",
          "type": "uint256"
        },
        {
          "indexed": true,
          "internalType": "address",
          "name": "token",
          "type": "address"
        },
        {
          "indexed": false,
          "internalType": "uint256",
          "name": "amount",
          "type": "uint256"
        },
        {
          "indexed": false,
          "internalType": "uint256",
          "name": "startTime",
          "type": "uint256"
        },
        {
          "indexed": false,
          "internalType": "uint256",
          "name": "endTime",
          "type": "uint256"
        },
        {
          "indexed": true,
          "internalType": "address",
          "name": "owner",
          "type": "address"
        }
      ],
      "name": "TokensLocked",
      "type": "event"
    },
    {
      "anonymous": false,
      "inputs": [
        {
          "indexed": true,
          "internalType": "uint256",
          "name": "lockID",
          "type": "uint256"
        },
        {
          "indexed": true,
          "internalType": "address",
          "name": "token",
          "type": "address"
        },
        {
          "indexed": true,
          "internalType": "address",
          "name": "owner",
          "type": "address"
        },
        {
          "indexed": false,
          "internalType": "uint256",
          "name": "amount",
          "type": "uint256"
        }
      ],
      "name": "TokensUnlocked",
      "type": "event"
    },
    {
      "anonymous": false,
      "inputs": [
        {
          "indexed": true,
          "internalType": "address",
          "name": "implementation",
          "type": "address"
        }
      ],
      "name": "Upgraded",
      "type": "event"
    },
    {
      "inputs": [
        {
          "internalType": "uint256",
          "name": "lockId",
          "type": "uint256"
        },
        {
          "internalType": "uint256",
          "name": "amount",
          "type": "uint256"
        }
      ],
      "name": "addFundsToLocker",
      "outputs": [],
      "stateMutability": "nonpayable",
      "type": "function"
    },
    {
      "inputs": [
        {
          "internalType": "address",
          "name": "tokenAddress",
          "type": "address"
        },
        {
          "internalType": "uint256",
          "name": "startTime",
          "type": "uint256"
        },
        {
          "internalType": "uint256",
          "name": "endTime",
          "type": "uint256"
        },
        {
          "internalType": "string",
          "name": "title",
          "type": "string"
        },
        {
          "internalType": "string",
          "name": "description",
          "type": "string"
        }
      ],
      "name": "createLock",
      "outputs": [
        {
          "internalType": "uint256",
          "name": "",
          "type": "uint256"
        }
      ],
      "stateMutability": "nonpayable",
      "type": "function"
    },
    {
      "inputs": [
        {
          "internalType": "uint256",
          "name": "lockId",
          "type": "uint256"
        }
      ],
      "name": "emergencyWithdraw",
      "outputs": [],
      "stateMutability": "nonpayable",
      "type": "function"
    },
    {
      "inputs": [],
      "name": "getAllUserLocks",
      "outputs": [
        {
          "components": [
            {
              "internalType": "address",
              "name": "tokenAddress",
              "type": "address"
            },
            {
              "internalType": "uint256",
              "name": "amount",
              "type": "uint256"
            },
            {
              "internalType": "uint256",
              "name": "startTime",
              "type": "uint256"
            },
            {
              "internalType": "uint256",
              "name": "endTime",
              "type": "uint256"
            },
            {
              "internalType": "string",
              "name": "title",
              "type": "string"
            },
            {
              "internalType": "string",
              "name": "description",
              "type": "string"
            },
            {
              "internalType": "bool",
              "name": "isActive",
              "type": "bool"
            },
            {
              "internalType": "address",
              "name": "owner",
              "type": "address"
            }
          ],
          "internalType": "struct TokenLocker.Lock[]",
          "name": "",
          "type": "tuple[]"
        }
      ],
      "stateMutability": "view",
      "type": "function"
    },
    {
      "inputs": [
        {
          "internalType": "address",
          "name": "user",
          "type": "address"
        }
      ],
      "name": "getUserLockCount",
      "outputs": [
        {
          "internalType": "uint256",
          "name": "",
          "type": "uint256"
        }
      ],
      "stateMutability": "view",
      "type": "function"
    },
    {
      "inputs": [
        {
          "internalType": "address",
          "name": "user",
          "type": "address"
        }
      ],
      "name": "getUserLocks",
      "outputs": [
        {
          "components": [
            {
              "internalType": "address",
              "name": "tokenAddress",
              "type": "address"
            },
            {
              "internalType": "uint256",
              "name": "amount",
              "type": "uint256"
            },
            {
              "internalType": "uint256",
              "name": "startTime",
              "type": "uint256"
            },
            {
              "internalType": "uint256",
              "name": "endTime",
              "type": "uint256"
            },
            {
              "internalType": "string",
              "name": "title",
              "type": "string"
            },
            {
              "internalType": "string",
              "name": "description",
              "type": "string"
            },
            {
              "internalType": "bool",
              "name": "isActive",
              "type": "bool"
            },
            {
              "internalType": "address",
              "name": "owner",
              "type": "address"
            }
          ],
          "internalType": "struct TokenLocker.Lock[]",
          "name": "",
          "type": "tuple[]"
        }
      ],
      "stateMutability": "view",
      "type": "function"
    },
    {
      "inputs": [
        {
          "internalType": "address",
          "name": "token",
          "type": "address"
        },
        {
          "internalType": "address",
          "name": "user",
          "type": "address"
        }
      ],
      "name": "getUserTokenBalance",
      "outputs": [
        {
          "internalType": "uint256",
          "name": "",
          "type": "uint256"
        }
      ],
      "stateMutability": "view",
      "type": "function"
    },
    {
      "inputs": [],
      "name": "initialize",
      "outputs": [],
      "stateMutability": "nonpayable",
      "type": "function"
    },
    {
      "inputs": [
        {
          "internalType": "uint256",
          "name": "lockId",
          "type": "uint256"
        }
      ],
      "name": "isLockActive",
      "outputs": [
        {
          "internalType": "bool",
          "name": "",
          "type": "bool"
        }
      ],
      "stateMutability": "view",
      "type": "function"
    },
    {
      "inputs": [
        {
          "internalType": "uint256",
          "name": "",
          "type": "uint256"
        }
      ],
      "name": "locks",
      "outputs": [
        {
          "internalType": "address",
          "name": "tokenAddress",
          "type": "address"
        },
        {
          "internalType": "uint256",
          "name": "amount",
          "type": "uint256"
        },
        {
          "internalType": "uint256",
          "name": "startTime",
          "type": "uint256"
        },
        {
          "internalType": "uint256",
          "name": "endTime",
          "type": "uint256"
        },
        {
          "internalType": "string",
          "name": "title",
          "type": "string"
        },
        {
          "internalType": "string",
          "name": "description",
          "type": "string"
        },
        {
          "internalType": "bool",
          "name": "isActive",
          "type": "bool"
        },
        {
          "internalType": "address",
          "name": "owner",
          "type": "address"
        }
      ],
      "stateMutability": "view",
      "type": "function"
    },
    {
      "inputs": [],
      "name": "owner",
      "outputs": [
        {
          "internalType": "address",
          "name": "",
          "type": "address"
        }
      ],
      "stateMutability": "view",
      "type": "function"
    },
    {
      "inputs": [],
      "name": "penaltyPercentage",
      "outputs": [
        {
          "internalType": "uint256",
          "name": "",
          "type": "uint256"
        }
      ],
      "stateMutability": "view",
      "type": "function"
    },
    {
      "inputs": [],
      "name": "proxiableUUID",
      "outputs": [
        {
          "internalType": "bytes32",
          "name": "",
          "type": "bytes32"
        }
      ],
      "stateMutability": "view",
      "type": "function"
    },
    {
      "inputs": [],
      "name": "renounceOwnership",
      "outputs": [],
      "stateMutability": "nonpayable",
      "type": "function"
    },
    {
      "inputs": [
        {
          "internalType": "uint256",
          "name": "newPercentage",
          "type": "uint256"
        }
      ],
      "name": "setPenaltyFeePercentage",
      "outputs": [],
      "stateMutability": "nonpayable",
      "type": "function"
    },
    {
      "inputs": [
        {
          "internalType": "address",
          "name": "newOwner",
          "type": "address"
        }
      ],
      "name": "transferOwnership",
      "outputs": [],
      "stateMutability": "nonpayable",
      "type": "function"
    },
    {
      "inputs": [
        {
          "internalType": "uint256",
          "name": "lockId",
          "type": "uint256"
        }
      ],
      "name": "unlock",
      "outputs": [],
      "stateMutability": "nonpayable",
      "type": "function"
    },
    {
      "inputs": [
        {
          "internalType": "address",
          "name": "newImplementation",
          "type": "address"
        }
      ],
      "name": "upgradeTo",
      "outputs": [],
      "stateMutability": "nonpayable",
      "type": "function"
    },
    {
      "inputs": [
        {
          "internalType": "address",
          "name": "newImplementation",
          "type": "address"
        },
        {
          "internalType": "bytes",
          "name": "data",
          "type": "bytes"
        }
      ],
      "name": "upgradeToAndCall",
      "outputs": [],
      "stateMutability": "payable",
      "type": "function"
    },
    {
      "inputs": [
        {
          "internalType": "address",
          "name": "",
          "type": "address"
        },
        {
          "internalType": "uint256",
          "name": "",
          "type": "uint256"
        }
      ],
      "name": "userLockIndices",
      "outputs": [
        {
          "internalType": "uint256",
          "name": "",
          "type": "uint256"
        }
      ],
      "stateMutability": "view",
      "type": "function"
    }
  ],
  "bytecode": "0x60a06040523073ffffffffffffffffffffffffffffffffffffffff1660809073ffffffffffffffffffffffffffffffffffffffff1681525034801561004357600080fd5b50608051614d8a61007b600039600081816108e10152818161096f01528181610a6901528181610af70152610ba70152614d8a6000f3fe60806040526004361061011f5760003560e01c806380e98410116100a05780639dfbe196116100645780639dfbe196146103b2578063e162d83f146103db578063f2fde38b14610418578063f4dadc6114610441578063fdf0fa1c146104855761011f565b806380e98410146102cb5780638129fc1c146103085780638da5cb5b1461031f5780639758c3a31461034a5780639b7d02ad146103755761011f565b806352d1902d116100e757806352d1902d146101fa5780635312ea8e146102255780636198e3391461024e578063715018a61461027757806373f8fd4b1461028e5761011f565b806315908d51146101245780631bbbec6e1461014f57806323a35de9146101785780633659cfe6146101b55780634f1ef286146101de575b600080fd5b34801561013057600080fd5b506101396104c2565b6040516101469190612d9b565b60405180910390f35b34801561015b57600080fd5b5061017660048036038101906101719190612df6565b6104c8565b005b34801561018457600080fd5b5061019f600480360381019061019a9190612e81565b61055f565b6040516101ac91906130f0565b60405180910390f35b3480156101c157600080fd5b506101dc60048036038101906101d79190612e81565b6108df565b005b6101f860048036038101906101f39190613247565b610a67565b005b34801561020657600080fd5b5061020f610ba3565b60405161021c91906132bc565b60405180910390f35b34801561023157600080fd5b5061024c60048036038101906102479190612df6565b610c5c565b005b34801561025a57600080fd5b5061027560048036038101906102709190612df6565b610fd3565b005b34801561028357600080fd5b5061028c6111ea565b005b34801561029a57600080fd5b506102b560048036038101906102b091906132d7565b6111fe565b6040516102c29190612d9b565b60405180910390f35b3480156102d757600080fd5b506102f260048036038101906102ed9190613317565b61128a565b6040516102ff9190612d9b565b60405180910390f35b34801561031457600080fd5b5061031d6112bb565b005b34801561032b57600080fd5b50610334611411565b6040516103419190613366565b60405180910390f35b34801561035657600080fd5b5061035f61143b565b60405161036c91906130f0565b60405180910390f35b34801561038157600080fd5b5061039c60048036038101906103979190612e81565b6116ac565b6040516103a99190612d9b565b60405180910390f35b3480156103be57600080fd5b506103d960048036038101906103d49190613381565b6116f8565b005b3480156103e757600080fd5b5061040260048036038101906103fd9190613462565b611a4f565b60405161040f9190612d9b565b60405180910390f35b34801561042457600080fd5b5061043f600480360381019061043a9190612e81565b611f85565b005b34801561044d57600080fd5b5061046860048036038101906104639190612df6565b612008565b60405161047c98979695949392919061356e565b60405180910390f35b34801561049157600080fd5b506104ac60048036038101906104a79190612df6565b6121bd565b6040516104b991906135fa565b60405180910390f35b60fb5481565b6104d0612240565b6064811115610514576040517f08c379a000000000000000000000000000000000000000000000000000000000815260040161050b90613661565b60405180910390fd5b600060fb5490508160fb819055507f0b54f396a7798db869bf9f25872cbedf20d2aeb265ee339810cf63061ad30b308183604051610553929190613681565b60405180910390a15050565b6060600060fe60008473ffffffffffffffffffffffffffffffffffffffff1673ffffffffffffffffffffffffffffffffffffffff1681526020019081526020016000208054806020026020016040519081016040528092919081815260200182805480156105ec57602002820191906000526020600020905b8154815260200190600101908083116105d8575b505050505090506000815167ffffffffffffffff8111156106105761060f61311c565b5b60405190808252806020026020018201604052801561064957816020015b610636612d0f565b81526020019060019003908161062e5790505b50905060005b82518110156108d45760fd83828151811061066d5761066c6136aa565b5b602002602001015181548110610686576106856136aa565b5b9060005260206000209060070201604051806101000160405290816000820160009054906101000a900473ffffffffffffffffffffffffffffffffffffffff1673ffffffffffffffffffffffffffffffffffffffff1673ffffffffffffffffffffffffffffffffffffffff16815260200160018201548152602001600282015481526020016003820154815260200160048201805461072490613708565b80601f016020809104026020016040519081016040528092919081815260200182805461075090613708565b801561079d5780601f106107725761010080835404028352916020019161079d565b820191906000526020600020905b81548152906001019060200180831161078057829003601f168201915b505050505081526020016005820180546107b690613708565b80601f01602080910402602001604051908101604052809291908181526020018280546107e290613708565b801561082f5780601f106108045761010080835404028352916020019161082f565b820191906000526020600020905b81548152906001019060200180831161081257829003601f168201915b505050505081526020016006820160009054906101000a900460ff161515151581526020016006820160019054906101000a900473ffffffffffffffffffffffffffffffffffffffff1673ffffffffffffffffffffffffffffffffffffffff1673ffffffffffffffffffffffffffffffffffffffff16815250508282815181106108bc576108bb6136aa565b5b6020026020010181905250808060010191505061064f565b508092505050919050565b7f000000000000000000000000000000000000000000000000000000000000000073ffffffffffffffffffffffffffffffffffffffff163073ffffffffffffffffffffffffffffffffffffffff160361096d576040517f08c379a0000000000000000000000000000000000000000000000000000000008152600401610964906137ab565b60405180910390fd5b7f000000000000000000000000000000000000000000000000000000000000000073ffffffffffffffffffffffffffffffffffffffff166109ac6122be565b73ffffffffffffffffffffffffffffffffffffffff1614610a02576040517f08c379a00000000000000000000000000000000000000000000000000000000081526004016109f99061383d565b60405180910390fd5b610a0b81612315565b610a6481600067ffffffffffffffff811115610a2a57610a2961311c565b5b6040519080825280601f01601f191660200182016040528015610a5c5781602001600182028036833780820191505090505b506000612320565b50565b7f000000000000000000000000000000000000000000000000000000000000000073ffffffffffffffffffffffffffffffffffffffff163073ffffffffffffffffffffffffffffffffffffffff1603610af5576040517f08c379a0000000000000000000000000000000000000000000000000000000008152600401610aec906137ab565b60405180910390fd5b7f000000000000000000000000000000000000000000000000000000000000000073ffffffffffffffffffffffffffffffffffffffff16610b346122be565b73ffffffffffffffffffffffffffffffffffffffff1614610b8a576040517f08c379a0000000000000000000000000000000000000000000000000000000008152600401610b819061383d565b60405180910390fd5b610b9382612315565b610b9f82826001612320565b5050565b60007f000000000000000000000000000000000000000000000000000000000000000073ffffffffffffffffffffffffffffffffffffffff163073ffffffffffffffffffffffffffffffffffffffff1614610c33576040517f08c379a0000000000000000000000000000000000000000000000000000000008152600401610c2a906138cf565b60405180910390fd5b7f360894a13ba1a3210667c828492db98dca3e2076cc3735a920a3ca505d382bbc60001b905090565b610c6461248e565b60fd805490508110610cab576040517f08c379a0000000000000000000000000000000000000000000000000000000008152600401610ca29061393b565b60405180910390fd5b600060fd8281548110610cc157610cc06136aa565b5b906000526020600020906007020190503373ffffffffffffffffffffffffffffffffffffffff168160060160019054906101000a900473ffffffffffffffffffffffffffffffffffffffff1673ffffffffffffffffffffffffffffffffffffffff1614610d63576040517f08c379a0000000000000000000000000000000000000000000000000000000008152600401610d5a906139a7565b60405180910390fd5b8060060160009054906101000a900460ff16610db4576040517f08c379a0000000000000000000000000000000000000000000000000000000008152600401610dab90613a13565b60405180910390fd5b8060020154421015610dfb576040517f08c379a0000000000000000000000000000000000000000000000000000000008152600401610df290613a7f565b60405180910390fd5b80600301544210610e41576040517f08c379a0000000000000000000000000000000000000000000000000000000008152600401610e3890613aeb565b60405180910390fd5b6000606460fb548360010154610e579190613b3a565b610e619190613bab565b90506000818360010154610e759190613bdc565b905060008360060160006101000a81548160ff021916908315150217905550610eea610e9f611411565b838560000160009054906101000a900473ffffffffffffffffffffffffffffffffffffffff1673ffffffffffffffffffffffffffffffffffffffff166124dd9092919063ffffffff16565b610f3933828560000160009054906101000a900473ffffffffffffffffffffffffffffffffffffffff1673ffffffffffffffffffffffffffffffffffffffff166124dd9092919063ffffffff16565b3373ffffffffffffffffffffffffffffffffffffffff168360000160009054906101000a900473ffffffffffffffffffffffffffffffffffffffff1673ffffffffffffffffffffffffffffffffffffffff16857fbdabf5221c04867ac21f86be137e0609760a5a6d69a2fe2772bdc023d5df167e8486604051610fbd929190613681565b60405180910390a4505050610fd0612563565b50565b610fdb61248e565b60fd805490508110611022576040517f08c379a000000000000000000000000000000000000000000000000000000000815260040161101990613c5c565b60405180910390fd5b600060fd8281548110611038576110376136aa565b5b906000526020600020906007020190508060060160009054906101000a900460ff16611099576040517f08c379a000000000000000000000000000000000000000000000000000000000815260040161109090613a13565b60405180910390fd5b80600301544210156110e0576040517f08c379a00000000000000000000000000000000000000000000000000000000081526004016110d790613cc8565b60405180910390fd5b60008160060160006101000a81548160ff0219169083151502179055506111503382600101548360000160009054906101000a900473ffffffffffffffffffffffffffffffffffffffff1673ffffffffffffffffffffffffffffffffffffffff166124dd9092919063ffffffff16565b3373ffffffffffffffffffffffffffffffffffffffff168160000160009054906101000a900473ffffffffffffffffffffffffffffffffffffffff1673ffffffffffffffffffffffffffffffffffffffff16837f19193c14e304bcaafa1323889b15c70abcee51dc8cce9b0a4f21040ed456a4af84600101546040516111d69190612d9b565b60405180910390a4506111e7612563565b50565b6111f2612240565b6111fc600061256c565b565b6000611208612240565b8273ffffffffffffffffffffffffffffffffffffffff166370a08231836040518263ffffffff1660e01b81526004016112419190613366565b602060405180830381865afa15801561125e573d6000803e3d6000fd5b505050506040513d601f19601f820116820180604052508101906112829190613cfd565b905092915050565b60fe60205281600052604060002081815481106112a657600080fd5b90600052602060002001600091509150505481565b60008060019054906101000a900460ff161590508080156112ec5750600160008054906101000a900460ff1660ff16105b8061131957506112fb30612632565b1580156113185750600160008054906101000a900460ff1660ff16145b5b611358576040517f08c379a000000000000000000000000000000000000000000000000000000000815260040161134f90613d9c565b60405180910390fd5b60016000806101000a81548160ff021916908360ff1602179055508015611395576001600060016101000a81548160ff0219169083151502179055505b61139d612655565b6113a56126ae565b6113ad612707565b600560fb81905550801561140e5760008060016101000a81548160ff0219169083151502179055507f7f26b83ff96e1f2b6a682f133852f6798a09c465da95921460cefb384740249860016040516114059190613e0e565b60405180910390a15b50565b6000606560009054906101000a900473ffffffffffffffffffffffffffffffffffffffff16905090565b6060611445612240565b60fd805480602002602001604051908101604052809291908181526020016000905b828210156116a35783829060005260206000209060070201604051806101000160405290816000820160009054906101000a900473ffffffffffffffffffffffffffffffffffffffff1673ffffffffffffffffffffffffffffffffffffffff1673ffffffffffffffffffffffffffffffffffffffff16815260200160018201548152602001600282015481526020016003820154815260200160048201805461150f90613708565b80601f016020809104026020016040519081016040528092919081815260200182805461153b90613708565b80156115885780601f1061155d57610100808354040283529160200191611588565b820191906000526020600020905b81548152906001019060200180831161156b57829003601f168201915b505050505081526020016005820180546115a190613708565b80601f01602080910402602001604051908101604052809291908181526020018280546115cd90613708565b801561161a5780601f106115ef5761010080835404028352916020019161161a565b820191906000526020600020905b8154815290600101906020018083116115fd57829003601f168201915b505050505081526020016006820160009054906101000a900460ff161515151581526020016006820160019054906101000a900473ffffffffffffffffffffffffffffffffffffffff1673ffffffffffffffffffffffffffffffffffffffff1673ffffffffffffffffffffffffffffffffffffffff168152505081526020019060010190611467565b50505050905090565b600060fe60008373ffffffffffffffffffffffffffffffffffffffff1673ffffffffffffffffffffffffffffffffffffffff168152602001908152602001600020805490509050919050565b6000811161173b576040517f08c379a000000000000000000000000000000000000000000000000000000000815260040161173290613e75565b60405180910390fd5b81600160fd8054905061174e9190613bdc565b111561178f576040517f08c379a000000000000000000000000000000000000000000000000000000000815260040161178690613ee1565b60405180910390fd5b600060fd83815481106117a5576117a46136aa565b5b9060005260206000209060070201905080600201544210156117fc576040517f08c379a00000000000000000000000000000000000000000000000000000000081526004016117f390613f73565b60405180910390fd5b4281600301541015611843576040517f08c379a000000000000000000000000000000000000000000000000000000000815260040161183a90613fdf565b60405180910390fd5b3373ffffffffffffffffffffffffffffffffffffffff168160060160019054906101000a900473ffffffffffffffffffffffffffffffffffffffff1673ffffffffffffffffffffffffffffffffffffffff16146118d5576040517f08c379a00000000000000000000000000000000000000000000000000000000081526004016118cc9061404b565b60405180910390fd5b8060060160009054906101000a900460ff16611926576040517f08c379a000000000000000000000000000000000000000000000000000000000815260040161191d906140dd565b60405180910390fd5b6119773330848460000160009054906101000a900473ffffffffffffffffffffffffffffffffffffffff1673ffffffffffffffffffffffffffffffffffffffff16612758909392919063ffffffff16565b8181600101600082825461198b91906140fd565b925050819055508160fc60003373ffffffffffffffffffffffffffffffffffffffff1673ffffffffffffffffffffffffffffffffffffffff168152602001908152602001600020600085815260200190815260200160002060008282546119f291906140fd565b92505081905550823373ffffffffffffffffffffffffffffffffffffffff167f8aa8d33ccc20314876b60c2856d09e8426425799fa3b3e5e8c9489dd92239c138442604051611a42929190613681565b60405180910390a3505050565b6000611a5961248e565b600073ffffffffffffffffffffffffffffffffffffffff168673ffffffffffffffffffffffffffffffffffffffff1603611ac8576040517f08c379a0000000000000000000000000000000000000000000000000000000008152600401611abf9061417d565b60405180910390fd5b42851015611b0b576040517f08c379a0000000000000000000000000000000000000000000000000000000008152600401611b02906141e9565b60405180910390fd5b848411611b4d576040517f08c379a0000000000000000000000000000000000000000000000000000000008152600401611b449061427b565b60405180910390fd5b6000835111611b91576040517f08c379a0000000000000000000000000000000000000000000000000000000008152600401611b88906142e7565b60405180910390fd5b60005b60fe60003373ffffffffffffffffffffffffffffffffffffffff1673ffffffffffffffffffffffffffffffffffffffff16815260200190815260200160002080549050811015611cff57600060fd60fe60003373ffffffffffffffffffffffffffffffffffffffff1673ffffffffffffffffffffffffffffffffffffffff1681526020019081526020016000208381548110611c3357611c326136aa565b5b906000526020600020015481548110611c4f57611c4e6136aa565b5b906000526020600020906007020190508773ffffffffffffffffffffffffffffffffffffffff168160000160009054906101000a900473ffffffffffffffffffffffffffffffffffffffff1673ffffffffffffffffffffffffffffffffffffffff1603611cf1576040517f08c379a0000000000000000000000000000000000000000000000000000000008152600401611ce890614353565b60405180910390fd5b508080600101915050611b94565b5060006040518061010001604052808873ffffffffffffffffffffffffffffffffffffffff168152602001600081526020018781526020018681526020018581526020018481526020016001151581526020013373ffffffffffffffffffffffffffffffffffffffff168152509050600060fd80549050905060fd82908060018154018082558091505060019003906000526020600020906007020160009091909190915060008201518160000160006101000a81548173ffffffffffffffffffffffffffffffffffffffff021916908373ffffffffffffffffffffffffffffffffffffffff1602179055506020820151816001015560408201518160020155606082015181600301556080820151816004019081611e1e9190614515565b5060a0820151816005019081611e349190614515565b5060c08201518160060160006101000a81548160ff02191690831515021790555060e08201518160060160016101000a81548173ffffffffffffffffffffffffffffffffffffffff021916908373ffffffffffffffffffffffffffffffffffffffff160217905550505060fe60003373ffffffffffffffffffffffffffffffffffffffff1673ffffffffffffffffffffffffffffffffffffffff1681526020019081526020016000208190806001815401808255809150506001900390600052602060002001600090919091909150553373ffffffffffffffffffffffffffffffffffffffff168873ffffffffffffffffffffffffffffffffffffffff16827fac8c16686c9284d0841c211065beada17af722c6e1759bdc4e4bd9ebbe10e72860008b8b604051611f6793929190614622565b60405180910390a48092505050611f7c612563565b95945050505050565b611f8d612240565b600073ffffffffffffffffffffffffffffffffffffffff168173ffffffffffffffffffffffffffffffffffffffff1603611ffc576040517f08c379a0000000000000000000000000000000000000000000000000000000008152600401611ff3906146cb565b60405180910390fd5b6120058161256c565b50565b60fd818154811061201857600080fd5b90600052602060002090600702016000915090508060000160009054906101000a900473ffffffffffffffffffffffffffffffffffffffff169080600101549080600201549080600301549080600401805461207390613708565b80601f016020809104026020016040519081016040528092919081815260200182805461209f90613708565b80156120ec5780601f106120c1576101008083540402835291602001916120ec565b820191906000526020600020905b8154815290600101906020018083116120cf57829003601f168201915b50505050509080600501805461210190613708565b80601f016020809104026020016040519081016040528092919081815260200182805461212d90613708565b801561217a5780601f1061214f5761010080835404028352916020019161217a565b820191906000526020600020905b81548152906001019060200180831161215d57829003601f168201915b5050505050908060060160009054906101000a900460ff16908060060160019054906101000a900473ffffffffffffffffffffffffffffffffffffffff16905088565b600060fd805490508210612206576040517f08c379a00000000000000000000000000000000000000000000000000000000081526004016121fd9061393b565b60405180910390fd5b60fd828154811061221a576122196136aa565b5b906000526020600020906007020160060160009054906101000a900460ff169050919050565b6122486127e1565b73ffffffffffffffffffffffffffffffffffffffff16612266611411565b73ffffffffffffffffffffffffffffffffffffffff16146122bc576040517f08c379a00000000000000000000000000000000000000000000000000000000081526004016122b390614737565b60405180910390fd5b565b60006122ec7f360894a13ba1a3210667c828492db98dca3e2076cc3735a920a3ca505d382bbc60001b6127e9565b60000160009054906101000a900473ffffffffffffffffffffffffffffffffffffffff16905090565b61231d612240565b50565b61234c7f4910fdfa16fed3260ed0e7147f7cc6da11a60208b5b9406d12a635614ffd914360001b6127f3565b60000160009054906101000a900460ff16156123705761236b836127fd565b612489565b8273ffffffffffffffffffffffffffffffffffffffff166352d1902d6040518163ffffffff1660e01b8152600401602060405180830381865afa9250505080156123d857506040513d601f19601f820116820180604052508101906123d59190614783565b60015b612417576040517f08c379a000000000000000000000000000000000000000000000000000000000815260040161240e90614822565b60405180910390fd5b7f360894a13ba1a3210667c828492db98dca3e2076cc3735a920a3ca505d382bbc60001b811461247c576040517f08c379a0000000000000000000000000000000000000000000000000000000008152600401612473906148b4565b60405180910390fd5b506124888383836128b6565b5b505050565b6002600154036124d3576040517f08c379a00000000000000000000000000000000000000000000000000000000081526004016124ca90614920565b60405180910390fd5b6002600181905550565b61255e8363a9059cbb60e01b84846040516024016124fc929190614940565b604051602081830303815290604052907bffffffffffffffffffffffffffffffffffffffffffffffffffffffff19166020820180517bffffffffffffffffffffffffffffffffffffffffffffffffffffffff83818316178352505050506128e2565b505050565b60018081905550565b6000606560009054906101000a900473ffffffffffffffffffffffffffffffffffffffff16905081606560006101000a81548173ffffffffffffffffffffffffffffffffffffffff021916908373ffffffffffffffffffffffffffffffffffffffff1602179055508173ffffffffffffffffffffffffffffffffffffffff168173ffffffffffffffffffffffffffffffffffffffff167f8be0079c531659141344cd1fd0a4f28419497f9722a3daafe3b4186f6b6457e060405160405180910390a35050565b6000808273ffffffffffffffffffffffffffffffffffffffff163b119050919050565b600060019054906101000a900460ff166126a4576040517f08c379a000000000000000000000000000000000000000000000000000000000815260040161269b906149db565b60405180910390fd5b6126ac6129aa565b565b600060019054906101000a900460ff166126fd576040517f08c379a00000000000000000000000000000000000000000000000000000000081526004016126f4906149db565b60405180910390fd5b612705612a0b565b565b600060019054906101000a900460ff16612756576040517f08c379a000000000000000000000000000000000000000000000000000000000815260040161274d906149db565b60405180910390fd5b565b6127db846323b872dd60e01b858585604051602401612779939291906149fb565b604051602081830303815290604052907bffffffffffffffffffffffffffffffffffffffffffffffffffffffff19166020820180517bffffffffffffffffffffffffffffffffffffffffffffffffffffffff83818316178352505050506128e2565b50505050565b600033905090565b6000819050919050565b6000819050919050565b61280681612632565b612845576040517f08c379a000000000000000000000000000000000000000000000000000000000815260040161283c90614aa4565b60405180910390fd5b806128727f360894a13ba1a3210667c828492db98dca3e2076cc3735a920a3ca505d382bbc60001b6127e9565b60000160006101000a81548173ffffffffffffffffffffffffffffffffffffffff021916908373ffffffffffffffffffffffffffffffffffffffff16021790555050565b6128bf83612a63565b6000825111806128cc5750805b156128dd576128db8383612ab2565b505b505050565b6000612944826040518060400160405280602081526020017f5361666545524332303a206c6f772d6c6576656c2063616c6c206661696c65648152508573ffffffffffffffffffffffffffffffffffffffff16612adf9092919063ffffffff16565b90506000815114806129665750808060200190518101906129659190614af0565b5b6129a5576040517f08c379a000000000000000000000000000000000000000000000000000000000815260040161299c90614b8f565b60405180910390fd5b505050565b600060019054906101000a900460ff166129f9576040517f08c379a00000000000000000000000000000000000000000000000000000000081526004016129f0906149db565b60405180910390fd5b612a09612a046127e1565b61256c565b565b600060019054906101000a900460ff16612a5a576040517f08c379a0000000000000000000000000000000000000000000000000000000008152600401612a51906149db565b60405180910390fd5b60018081905550565b612a6c816127fd565b8073ffffffffffffffffffffffffffffffffffffffff167fbc7cd75a20ee27fd9adebab32041f755214dbc6bffa90cc0225b39da2e5c2d3b60405160405180910390a250565b6060612ad78383604051806060016040528060278152602001614d2e60279139612af7565b905092915050565b6060612aee8484600085612b7d565b90509392505050565b60606000808573ffffffffffffffffffffffffffffffffffffffff1685604051612b219190614bf6565b600060405180830381855af49150503d8060008114612b5c576040519150601f19603f3d011682016040523d82523d6000602084013e612b61565b606091505b5091509150612b7286838387612c4a565b925050509392505050565b606082471015612bc2576040517f08c379a0000000000000000000000000000000000000000000000000000000008152600401612bb990614c7f565b60405180910390fd5b6000808673ffffffffffffffffffffffffffffffffffffffff168587604051612beb9190614bf6565b60006040518083038185875af1925050503d8060008114612c28576040519150601f19603f3d011682016040523d82523d6000602084013e612c2d565b606091505b5091509150612c3e87838387612c4a565b92505050949350505050565b60608315612cac576000835103612ca457612c6485612632565b612ca3576040517f08c379a0000000000000000000000000000000000000000000000000000000008152600401612c9a90614ceb565b60405180910390fd5b5b829050612cb7565b612cb68383612cbf565b5b949350505050565b600082511115612cd25781518083602001fd5b806040517f08c379a0000000000000000000000000000000000000000000000000000000008152600401612d069190614d0b565b60405180910390fd5b604051806101000160405280600073ffffffffffffffffffffffffffffffffffffffff1681526020016000815260200160008152602001600081526020016060815260200160608152602001600015158152602001600073ffffffffffffffffffffffffffffffffffffffff1681525090565b6000819050919050565b612d9581612d82565b82525050565b6000602082019050612db06000830184612d8c565b92915050565b6000604051905090565b600080fd5b600080fd5b612dd381612d82565b8114612dde57600080fd5b50565b600081359050612df081612dca565b92915050565b600060208284031215612e0c57612e0b612dc0565b5b6000612e1a84828501612de1565b91505092915050565b600073ffffffffffffffffffffffffffffffffffffffff82169050919050565b6000612e4e82612e23565b9050919050565b612e5e81612e43565b8114612e6957600080fd5b50565b600081359050612e7b81612e55565b92915050565b600060208284031215612e9757612e96612dc0565b5b6000612ea584828501612e6c565b91505092915050565b600081519050919050565b600082825260208201905092915050565b6000819050602082019050919050565b612ee381612e43565b82525050565b612ef281612d82565b82525050565b600081519050919050565b600082825260208201905092915050565b60005b83811015612f32578082015181840152602081019050612f17565b60008484015250505050565b6000601f19601f8301169050919050565b6000612f5a82612ef8565b612f648185612f03565b9350612f74818560208601612f14565b612f7d81612f3e565b840191505092915050565b60008115159050919050565b612f9d81612f88565b82525050565b600061010083016000830151612fbc6000860182612eda565b506020830151612fcf6020860182612ee9565b506040830151612fe26040860182612ee9565b506060830151612ff56060860182612ee9565b506080830151848203608086015261300d8282612f4f565b91505060a083015184820360a08601526130278282612f4f565b91505060c083015161303c60c0860182612f94565b5060e083015161304f60e0860182612eda565b508091505092915050565b60006130668383612fa3565b905092915050565b6000602082019050919050565b600061308682612eae565b6130908185612eb9565b9350836020820285016130a285612eca565b8060005b858110156130de57848403895281516130bf858261305a565b94506130ca8361306e565b925060208a019950506001810190506130a6565b50829750879550505050505092915050565b6000602082019050818103600083015261310a818461307b565b905092915050565b600080fd5b600080fd5b7f4e487b7100000000000000000000000000000000000000000000000000000000600052604160045260246000fd5b61315482612f3e565b810181811067ffffffffffffffff821117156131735761317261311c565b5b80604052505050565b6000613186612db6565b9050613192828261314b565b919050565b600067ffffffffffffffff8211156131b2576131b161311c565b5b6131bb82612f3e565b9050602081019050919050565b82818337600083830152505050565b60006131ea6131e584613197565b61317c565b90508281526020810184848401111561320657613205613117565b5b6132118482856131c8565b509392505050565b600082601f83011261322e5761322d613112565b5b813561323e8482602086016131d7565b91505092915050565b6000806040838503121561325e5761325d612dc0565b5b600061326c85828601612e6c565b925050602083013567ffffffffffffffff81111561328d5761328c612dc5565b5b61329985828601613219565b9150509250929050565b6000819050919050565b6132b6816132a3565b82525050565b60006020820190506132d160008301846132ad565b92915050565b600080604083850312156132ee576132ed612dc0565b5b60006132fc85828601612e6c565b925050602061330d85828601612e6c565b9150509250929050565b6000806040838503121561332e5761332d612dc0565b5b600061333c85828601612e6c565b925050602061334d85828601612de1565b9150509250929050565b61336081612e43565b82525050565b600060208201905061337b6000830184613357565b92915050565b6000806040838503121561339857613397612dc0565b5b60006133a685828601612de1565b92505060206133b785828601612de1565b9150509250929050565b600067ffffffffffffffff8211156133dc576133db61311c565b5b6133e582612f3e565b9050602081019050919050565b6000613405613400846133c1565b61317c565b90508281526020810184848401111561342157613420613117565b5b61342c8482856131c8565b509392505050565b600082601f83011261344957613448613112565b5b81356134598482602086016133f2565b91505092915050565b600080600080600060a0868803121561347e5761347d612dc0565b5b600061348c88828901612e6c565b955050602061349d88828901612de1565b94505060406134ae88828901612de1565b935050606086013567ffffffffffffffff8111156134cf576134ce612dc5565b5b6134db88828901613434565b925050608086013567ffffffffffffffff8111156134fc576134fb612dc5565b5b61350888828901613434565b9150509295509295909350565b600082825260208201905092915050565b600061353182612ef8565b61353b8185613515565b935061354b818560208601612f14565b61355481612f3e565b840191505092915050565b61356881612f88565b82525050565b600061010082019050613584600083018b613357565b613591602083018a612d8c565b61359e6040830189612d8c565b6135ab6060830188612d8c565b81810360808301526135bd8187613526565b905081810360a08301526135d18186613526565b90506135e060c083018561355f565b6135ed60e0830184613357565b9998505050505050505050565b600060208201905061360f600083018461355f565b92915050565b7f496e76616c69642070657263656e746167650000000000000000000000000000600082015250565b600061364b601283613515565b915061365682613615565b602082019050919050565b6000602082019050818103600083015261367a8161363e565b9050919050565b60006040820190506136966000830185612d8c565b6136a36020830184612d8c565b9392505050565b7f4e487b7100000000000000000000000000000000000000000000000000000000600052603260045260246000fd5b7f4e487b7100000000000000000000000000000000000000000000000000000000600052602260045260246000fd5b6000600282049050600182168061372057607f821691505b602082108103613733576137326136d9565b5b50919050565b7f46756e6374696f6e206d7573742062652063616c6c6564207468726f7567682060008201527f64656c656761746563616c6c0000000000000000000000000000000000000000602082015250565b6000613795602c83613515565b91506137a082613739565b604082019050919050565b600060208201905081810360008301526137c481613788565b9050919050565b7f46756e6374696f6e206d7573742062652063616c6c6564207468726f7567682060008201527f6163746976652070726f78790000000000000000000000000000000000000000602082015250565b6000613827602c83613515565b9150613832826137cb565b604082019050919050565b600060208201905081810360008301526138568161381a565b9050919050565b7f555550535570677261646561626c653a206d757374206e6f742062652063616c60008201527f6c6564207468726f7567682064656c656761746563616c6c0000000000000000602082015250565b60006138b9603883613515565b91506138c48261385d565b604082019050919050565b600060208201905081810360008301526138e8816138ac565b9050919050565b7f496e76616c6964206c6f636b2049440000000000000000000000000000000000600082015250565b6000613925600f83613515565b9150613930826138ef565b602082019050919050565b6000602082019050818103600083015261395481613918565b9050919050565b7f4e6f7420746865206c6f636b204f776e65720000000000000000000000000000600082015250565b6000613991601283613515565b915061399c8261395b565b602082019050919050565b600060208201905081810360008301526139c081613984565b9050919050565b7f4c6f636b206973206e6f74204163746976650000000000000000000000000000600082015250565b60006139fd601283613515565b9150613a08826139c7565b602082019050919050565b60006020820190508181036000830152613a2c816139f0565b9050919050565b7f4c6f636b20706572696f64206e6f742073746172746564000000000000000000600082015250565b6000613a69601783613515565b9150613a7482613a33565b602082019050919050565b60006020820190508181036000830152613a9881613a5c565b9050919050565b7f4c6f636b20706572696f6420616c726561647920656e64656400000000000000600082015250565b6000613ad5601983613515565b9150613ae082613a9f565b602082019050919050565b60006020820190508181036000830152613b0481613ac8565b9050919050565b7f4e487b7100000000000000000000000000000000000000000000000000000000600052601160045260246000fd5b6000613b4582612d82565b9150613b5083612d82565b9250828202613b5e81612d82565b91508282048414831517613b7557613b74613b0b565b5b5092915050565b7f4e487b7100000000000000000000000000000000000000000000000000000000600052601260045260246000fd5b6000613bb682612d82565b9150613bc183612d82565b925082613bd157613bd0613b7c565b5b828204905092915050565b6000613be782612d82565b9150613bf283612d82565b9250828203905081811115613c0a57613c09613b0b565b5b92915050565b7f496e76616c6964204c6f636b2049440000000000000000000000000000000000600082015250565b6000613c46600f83613515565b9150613c5182613c10565b602082019050919050565b60006020820190508181036000830152613c7581613c39565b9050919050565b7f4c6f636b20706572696f64206e6f7420656e6465642079657421000000000000600082015250565b6000613cb2601a83613515565b9150613cbd82613c7c565b602082019050919050565b60006020820190508181036000830152613ce181613ca5565b9050919050565b600081519050613cf781612dca565b92915050565b600060208284031215613d1357613d12612dc0565b5b6000613d2184828501613ce8565b91505092915050565b7f496e697469616c697a61626c653a20636f6e747261637420697320616c72656160008201527f647920696e697469616c697a6564000000000000000000000000000000000000602082015250565b6000613d86602e83613515565b9150613d9182613d2a565b604082019050919050565b60006020820190508181036000830152613db581613d79565b9050919050565b6000819050919050565b600060ff82169050919050565b6000819050919050565b6000613df8613df3613dee84613dbc565b613dd3565b613dc6565b9050919050565b613e0881613ddd565b82525050565b6000602082019050613e236000830184613dff565b92915050565b7f616d6f756e742073686f756c64206e6f74206265203000000000000000000000600082015250565b6000613e5f601683613515565b9150613e6a82613e29565b602082019050919050565b60006020820190508181036000830152613e8e81613e52565b9050919050565b7f6c6f636b657220646f65736e2774206578697374000000000000000000000000600082015250565b6000613ecb601483613515565b9150613ed682613e95565b602082019050919050565b60006020820190508181036000830152613efa81613ebe565b9050919050565b7f4c6f636b696e6720706572696f6420686173206e6f742073746172746564207960008201527f6574000000000000000000000000000000000000000000000000000000000000602082015250565b6000613f5d602283613515565b9150613f6882613f01565b604082019050919050565b60006020820190508181036000830152613f8c81613f50565b9050919050565b7f4c6f636b696e6720706572696f6420686173206265656e20656e646564000000600082015250565b6000613fc9601d83613515565b9150613fd482613f93565b602082019050919050565b60006020820190508181036000830152613ff881613fbc565b9050919050565b7f4e6f7420746865204c6f636b206f776e65720000000000000000000000000000600082015250565b6000614035601283613515565b915061404082613fff565b602082019050919050565b6000602082019050818103600083015261406481614028565b9050919050565b7f43616e6e6f74206164642066756e647320746f20616e20696e6163746976652060008201527f4c6f636b00000000000000000000000000000000000000000000000000000000602082015250565b60006140c7602483613515565b91506140d28261406b565b604082019050919050565b600060208201905081810360008301526140f6816140ba565b9050919050565b600061410882612d82565b915061411383612d82565b925082820190508082111561412b5761412a613b0b565b5b92915050565b7f496e76616c696420546f6b656e20416464726573730000000000000000000000600082015250565b6000614167601583613515565b915061417282614131565b602082019050919050565b600060208201905081810360008301526141968161415a565b9050919050565b7f53746172742054696d65206d75737420626520696e2074686520667574757265600082015250565b60006141d3602083613515565b91506141de8261419d565b602082019050919050565b60006020820190508181036000830152614202816141c6565b9050919050565b7f456e642074696d65206d7573742062652061667465722074686520737461727460008201527f2074696d65000000000000000000000000000000000000000000000000000000602082015250565b6000614265602583613515565b915061427082614209565b604082019050919050565b6000602082019050818103600083015261429481614258565b9050919050565b7f5469746c652063616e6e6f7420626520656d7074790000000000000000000000600082015250565b60006142d1601583613515565b91506142dc8261429b565b602082019050919050565b60006020820190508181036000830152614300816142c4565b9050919050565b7f546f6b656e20616c7265616479207573656420666f722061206c6f636b000000600082015250565b600061433d601d83613515565b915061434882614307565b602082019050919050565b6000602082019050818103600083015261436c81614330565b9050919050565b60008190508160005260206000209050919050565b60006020601f8301049050919050565b600082821b905092915050565b6000600883026143d57fffffffffffffffffffffffffffffffffffffffffffffffffffffffffffffffff82614398565b6143df8683614398565b95508019841693508086168417925050509392505050565b600061441261440d61440884612d82565b613dd3565b612d82565b9050919050565b6000819050919050565b61442c836143f7565b61444061443882614419565b8484546143a5565b825550505050565b600090565b614455614448565b614460818484614423565b505050565b5b818110156144845761447960008261444d565b600181019050614466565b5050565b601f8211156144c95761449a81614373565b6144a384614388565b810160208510156144b2578190505b6144c66144be85614388565b830182614465565b50505b505050565b600082821c905092915050565b60006144ec600019846008026144ce565b1980831691505092915050565b600061450583836144db565b9150826002028217905092915050565b61451e82612ef8565b67ffffffffffffffff8111156145375761453661311c565b5b6145418254613708565b61454c828285614488565b600060209050601f83116001811461457f576000841561456d578287015190505b61457785826144f9565b8655506145df565b601f19841661458d86614373565b60005b828110156145b557848901518255600182019150602085019450602081019050614590565b868310156145d257848901516145ce601f8916826144db565b8355505b6001600288020188555050505b505050505050565b6000819050919050565b600061460c614607614602846145e7565b613dd3565b612d82565b9050919050565b61461c816145f1565b82525050565b60006060820190506146376000830186614613565b6146446020830185612d8c565b6146516040830184612d8c565b949350505050565b7f4f776e61626c653a206e6577206f776e657220697320746865207a65726f206160008201527f6464726573730000000000000000000000000000000000000000000000000000602082015250565b60006146b5602683613515565b91506146c082614659565b604082019050919050565b600060208201905081810360008301526146e4816146a8565b9050919050565b7f4f776e61626c653a2063616c6c6572206973206e6f7420746865206f776e6572600082015250565b6000614721602083613515565b915061472c826146eb565b602082019050919050565b6000602082019050818103600083015261475081614714565b9050919050565b614760816132a3565b811461476b57600080fd5b50565b60008151905061477d81614757565b92915050565b60006020828403121561479957614798612dc0565b5b60006147a78482850161476e565b91505092915050565b7f45524331393637557067726164653a206e657720696d706c656d656e7461746960008201527f6f6e206973206e6f742055555053000000000000000000000000000000000000602082015250565b600061480c602e83613515565b9150614817826147b0565b604082019050919050565b6000602082019050818103600083015261483b816147ff565b9050919050565b7f45524331393637557067726164653a20756e737570706f727465642070726f7860008201527f6961626c65555549440000000000000000000000000000000000000000000000602082015250565b600061489e602983613515565b91506148a982614842565b604082019050919050565b600060208201905081810360008301526148cd81614891565b9050919050565b7f5265656e7472616e637947756172643a207265656e7472616e742063616c6c00600082015250565b600061490a601f83613515565b9150614915826148d4565b602082019050919050565b60006020820190508181036000830152614939816148fd565b9050919050565b60006040820190506149556000830185613357565b6149626020830184612d8c565b9392505050565b7f496e697469616c697a61626c653a20636f6e7472616374206973206e6f74206960008201527f6e697469616c697a696e67000000000000000000000000000000000000000000602082015250565b60006149c5602b83613515565b91506149d082614969565b604082019050919050565b600060208201905081810360008301526149f4816149b8565b9050919050565b6000606082019050614a106000830186613357565b614a1d6020830185613357565b614a2a6040830184612d8c565b949350505050565b7f455243313936373a206e657720696d706c656d656e746174696f6e206973206e60008201527f6f74206120636f6e747261637400000000000000000000000000000000000000602082015250565b6000614a8e602d83613515565b9150614a9982614a32565b604082019050919050565b60006020820190508181036000830152614abd81614a81565b9050919050565b614acd81612f88565b8114614ad857600080fd5b50565b600081519050614aea81614ac4565b92915050565b600060208284031215614b0657614b05612dc0565b5b6000614b1484828501614adb565b91505092915050565b7f5361666545524332303a204552433230206f7065726174696f6e20646964206e60008201527f6f74207375636365656400000000000000000000000000000000000000000000602082015250565b6000614b79602a83613515565b9150614b8482614b1d565b604082019050919050565b60006020820190508181036000830152614ba881614b6c565b9050919050565b600081519050919050565b600081905092915050565b6000614bd082614baf565b614bda8185614bba565b9350614bea818560208601612f14565b80840191505092915050565b6000614c028284614bc5565b915081905092915050565b7f416464726573733a20696e73756666696369656e742062616c616e636520666f60008201527f722063616c6c0000000000000000000000000000000000000000000000000000602082015250565b6000614c69602683613515565b9150614c7482614c0d565b604082019050919050565b60006020820190508181036000830152614c9881614c5c565b9050919050565b7f416464726573733a2063616c6c20746f206e6f6e2d636f6e7472616374000000600082015250565b6000614cd5601d83613515565b9150614ce082614c9f565b602082019050919050565b60006020820190508181036000830152614d0481614cc8565b9050919050565b60006020820190508181036000830152614d258184613526565b90509291505056fe416464726573733a206c6f772d6c6576656c2064656c65676174652063616c6c206661696c6564a2646970667358221220dd695b108fb7eab64d7e9de678a17ec1196da0aaaf183cbf6bd8da1ab65e890764736f6c634300081b0033",
  "linkReferences": {},
  "deployedLinkReferences": {}
}