{
  "_format": "hh-sol-artifact-1",
  "contractName": "TokenLocker",
  "sourceName": "contracts/TokenLocker.sol",
  "abi": [
    {
      "inputs": [],
      "stateMutability": "nonpayable",
      "type": "constructor"
    },
    {
      "anonymous": false,
      "inputs": [
        {
          "indexed": true,
          "internalType": "uint256",
          "name": "lockID",
          "type": "uint256"
        },
        {
          "indexed": true,
          "internalType": "address",
          "name": "token",
          "type": "address"
        },
        {
          "indexed": true,
          "internalType": "address",
          "name": "owner",
          "type": "address"
        },
        {
          "indexed": false,
          "internalType": "uint256",
          "name": "returnedAmount",
          "type": "uint256"
        },
        {
          "indexed": false,
          "internalType": "uint256",
          "name": "penaltyAmount",
          "type": "uint256"
        }
      ],
      "name": "EmergencyWithdraw",
      "type": "event"
    },
    {
      "anonymous": false,
      "inputs": [
        {
          "indexed": true,
          "internalType": "address",
          "name": "user",
          "type": "address"
        },
        {
          "indexed": true,
          "internalType": "uint256",
          "name": "lockId",
          "type": "uint256"
        },
        {
          "indexed": false,
          "internalType": "uint256",
          "name": "amount",
          "type": "uint256"
        },
        {
          "indexed": false,
          "internalType": "uint256",
          "name": "timestamp",
          "type": "uint256"
        }
      ],
      "name": "FundsAddedToLocker",
      "type": "event"
    },
    {
      "anonymous": false,
      "inputs": [
        {
          "indexed": true,
          "internalType": "address",
          "name": "previousOwner",
          "type": "address"
        },
        {
          "indexed": true,
          "internalType": "address",
          "name": "newOwner",
          "type": "address"
        }
      ],
      "name": "OwnershipTransferred",
      "type": "event"
    },
    {
      "anonymous": false,
      "inputs": [
        {
          "indexed": false,
          "internalType": "uint256",
          "name": "oldFee",
          "type": "uint256"
        },
        {
          "indexed": false,
          "internalType": "uint256",
          "name": "newFee",
          "type": "uint256"
        }
      ],
      "name": "PenaltyFeeUpdated",
      "type": "event"
    },
    {
      "anonymous": false,
      "inputs": [
        {
          "indexed": true,
          "internalType": "uint256",
          "name": "lockID",
          "type": "uint256"
        },
        {
          "indexed": true,
          "internalType": "address",
          "name": "token",
          "type": "address"
        },
        {
          "indexed": false,
          "internalType": "uint256",
          "name": "amount",
          "type": "uint256"
        },
        {
          "indexed": false,
          "internalType": "uint256",
          "name": "startTime",
          "type": "uint256"
        },
        {
          "indexed": false,
          "internalType": "uint256",
          "name": "endTime",
          "type": "uint256"
        },
        {
          "indexed": true,
          "internalType": "address",
          "name": "owner",
          "type": "address"
        }
      ],
      "name": "TokensLocked",
      "type": "event"
    },
    {
      "anonymous": false,
      "inputs": [
        {
          "indexed": true,
          "internalType": "uint256",
          "name": "lockID",
          "type": "uint256"
        },
        {
          "indexed": true,
          "internalType": "address",
          "name": "token",
          "type": "address"
        },
        {
          "indexed": true,
          "internalType": "address",
          "name": "owner",
          "type": "address"
        },
        {
          "indexed": false,
          "internalType": "uint256",
          "name": "amount",
          "type": "uint256"
        }
      ],
      "name": "TokensUnlocked",
      "type": "event"
    },
    {
      "inputs": [
        {
          "internalType": "uint256",
          "name": "lockId",
          "type": "uint256"
        },
        {
          "internalType": "uint256",
          "name": "amount",
          "type": "uint256"
        }
      ],
      "name": "addFundsToLocker",
      "outputs": [],
      "stateMutability": "nonpayable",
      "type": "function"
    },
    {
      "inputs": [
        {
          "internalType": "address",
          "name": "tokenAddress",
          "type": "address"
        },
        {
          "internalType": "uint256",
          "name": "startTime",
          "type": "uint256"
        },
        {
          "internalType": "uint256",
          "name": "endTime",
          "type": "uint256"
        },
        {
          "internalType": "string",
          "name": "title",
          "type": "string"
        },
        {
          "internalType": "string",
          "name": "description",
          "type": "string"
        }
      ],
      "name": "createLock",
      "outputs": [
        {
          "internalType": "uint256",
          "name": "",
          "type": "uint256"
        }
      ],
      "stateMutability": "nonpayable",
      "type": "function"
    },
    {
      "inputs": [
        {
          "internalType": "uint256",
          "name": "lockId",
          "type": "uint256"
        }
      ],
      "name": "emergencyWithdraw",
      "outputs": [],
      "stateMutability": "nonpayable",
      "type": "function"
    },
    {
      "inputs": [
        {
          "internalType": "address",
          "name": "user",
          "type": "address"
        },
        {
          "internalType": "uint256",
          "name": "lockerId",
          "type": "uint256"
        }
      ],
      "name": "getAmount",
      "outputs": [
        {
          "internalType": "uint256",
          "name": "",
          "type": "uint256"
        }
      ],
      "stateMutability": "view",
      "type": "function"
    },
    {
      "inputs": [],
      "name": "getTotalLocks",
      "outputs": [
        {
          "internalType": "uint256",
          "name": "",
          "type": "uint256"
        }
      ],
      "stateMutability": "view",
      "type": "function"
    },
    {
      "inputs": [
        {
          "internalType": "address",
          "name": "user",
          "type": "address"
        }
      ],
      "name": "getUserLockCount",
      "outputs": [
        {
          "internalType": "uint256",
          "name": "",
          "type": "uint256"
        }
      ],
      "stateMutability": "view",
      "type": "function"
    },
    {
      "inputs": [
        {
          "internalType": "address",
          "name": "user",
          "type": "address"
        }
      ],
      "name": "getUserLocks",
      "outputs": [
        {
          "components": [
            {
              "internalType": "address",
              "name": "tokenAddress",
              "type": "address"
            },
            {
              "internalType": "uint256",
              "name": "amount",
              "type": "uint256"
            },
            {
              "internalType": "uint256",
              "name": "startTime",
              "type": "uint256"
            },
            {
              "internalType": "uint256",
              "name": "endTime",
              "type": "uint256"
            },
            {
              "internalType": "string",
              "name": "title",
              "type": "string"
            },
            {
              "internalType": "string",
              "name": "description",
              "type": "string"
            },
            {
              "internalType": "bool",
              "name": "isActive",
              "type": "bool"
            },
            {
              "internalType": "address",
              "name": "owner",
              "type": "address"
            }
          ],
          "internalType": "struct TokenLocker.Lock[]",
          "name": "",
          "type": "tuple[]"
        }
      ],
      "stateMutability": "view",
      "type": "function"
    },
    {
      "inputs": [
        {
          "internalType": "address",
          "name": "token",
          "type": "address"
        },
        {
          "internalType": "address",
          "name": "user",
          "type": "address"
        }
      ],
      "name": "getUserTokenBalance",
      "outputs": [
        {
          "internalType": "uint256",
          "name": "",
          "type": "uint256"
        }
      ],
      "stateMutability": "view",
      "type": "function"
    },
    {
      "inputs": [
        {
          "internalType": "uint256",
          "name": "lockId",
          "type": "uint256"
        }
      ],
      "name": "isLockActive",
      "outputs": [
        {
          "internalType": "bool",
          "name": "",
          "type": "bool"
        }
      ],
      "stateMutability": "view",
      "type": "function"
    },
    {
      "inputs": [
        {
          "internalType": "uint256",
          "name": "",
          "type": "uint256"
        }
      ],
      "name": "locks",
      "outputs": [
        {
          "internalType": "address",
          "name": "tokenAddress",
          "type": "address"
        },
        {
          "internalType": "uint256",
          "name": "amount",
          "type": "uint256"
        },
        {
          "internalType": "uint256",
          "name": "startTime",
          "type": "uint256"
        },
        {
          "internalType": "uint256",
          "name": "endTime",
          "type": "uint256"
        },
        {
          "internalType": "string",
          "name": "title",
          "type": "string"
        },
        {
          "internalType": "string",
          "name": "description",
          "type": "string"
        },
        {
          "internalType": "bool",
          "name": "isActive",
          "type": "bool"
        },
        {
          "internalType": "address",
          "name": "owner",
          "type": "address"
        }
      ],
      "stateMutability": "view",
      "type": "function"
    },
    {
      "inputs": [],
      "name": "owner",
      "outputs": [
        {
          "internalType": "address",
          "name": "",
          "type": "address"
        }
      ],
      "stateMutability": "view",
      "type": "function"
    },
    {
      "inputs": [],
      "name": "penaltyPercentage",
      "outputs": [
        {
          "internalType": "uint256",
          "name": "",
          "type": "uint256"
        }
      ],
      "stateMutability": "view",
      "type": "function"
    },
    {
      "inputs": [],
      "name": "renounceOwnership",
      "outputs": [],
      "stateMutability": "nonpayable",
      "type": "function"
    },
    {
      "inputs": [
        {
          "internalType": "uint256",
          "name": "newPercentage",
          "type": "uint256"
        }
      ],
      "name": "setPenaltyFeePercentage",
      "outputs": [],
      "stateMutability": "nonpayable",
      "type": "function"
    },
    {
      "inputs": [
        {
          "internalType": "address",
          "name": "newOwner",
          "type": "address"
        }
      ],
      "name": "transferOwnership",
      "outputs": [],
      "stateMutability": "nonpayable",
      "type": "function"
    },
    {
      "inputs": [
        {
          "internalType": "uint256",
          "name": "lockId",
          "type": "uint256"
        }
      ],
      "name": "unlock",
      "outputs": [],
      "stateMutability": "nonpayable",
      "type": "function"
    },
    {
      "inputs": [
        {
          "internalType": "address",
          "name": "",
          "type": "address"
        },
        {
          "internalType": "uint256",
          "name": "",
          "type": "uint256"
        }
      ],
      "name": "userLockIndices",
      "outputs": [
        {
          "internalType": "uint256",
          "name": "",
          "type": "uint256"
        }
      ],
      "stateMutability": "view",
      "type": "function"
    }
  ],
  "bytecode": "0x6080604052600560025534801561001557600080fd5b50600160008190555061003a61002f61004760201b60201c565b61004f60201b60201c565b6005600281905550610115565b600033905090565b6000600160009054906101000a900473ffffffffffffffffffffffffffffffffffffffff16905081600160006101000a81548173ffffffffffffffffffffffffffffffffffffffff021916908373ffffffffffffffffffffffffffffffffffffffff1602179055508173ffffffffffffffffffffffffffffffffffffffff168173ffffffffffffffffffffffffffffffffffffffff167f8be0079c531659141344cd1fd0a4f28419497f9722a3daafe3b4186f6b6457e060405160405180910390a35050565b613941806101246000396000f3fe608060405234801561001057600080fd5b506004361061010b5760003560e01c80638da5cb5b116100a2578063e0b999a111610071578063e0b999a1146102a4578063e162d83f146102d4578063f2fde38b14610304578063f4dadc6114610320578063fdf0fa1c146103575761010b565b80638da5cb5b1461021c57806394c93b471461023a5780639b7d02ad146102585780639dfbe196146102885761010b565b80636198e339116100de5780636198e33914610196578063715018a6146101b257806373f8fd4b146101bc57806380e98410146101ec5761010b565b806315908d51146101105780631bbbec6e1461012e57806323a35de91461014a5780635312ea8e1461017a575b600080fd5b610118610387565b6040516101259190611ff6565b60405180910390f35b61014860048036038101906101439190612051565b61038d565b005b610164600480360381019061015f91906120dc565b610424565b604051610171919061234b565b60405180910390f35b610194600480360381019061018f9190612051565b6107a4565b005b6101b060048036038101906101ab9190612051565b610b1b565b005b6101ba610d32565b005b6101d660048036038101906101d1919061236d565b610d46565b6040516101e39190611ff6565b60405180910390f35b610206600480360381019061020191906123ad565b610dca565b6040516102139190611ff6565b60405180910390f35b610224610dfb565b60405161023191906123fc565b60405180910390f35b610242610e25565b60405161024f9190611ff6565b60405180910390f35b610272600480360381019061026d91906120dc565b610e32565b60405161027f9190611ff6565b60405180910390f35b6102a2600480360381019061029d9190612417565b610e7e565b005b6102be60048036038101906102b991906123ad565b6111d5565b6040516102cb9190611ff6565b60405180910390f35b6102ee60048036038101906102e9919061258c565b611230565b6040516102fb9190611ff6565b60405180910390f35b61031e600480360381019061031991906120dc565b611766565b005b61033a60048036038101906103359190612051565b6117e9565b60405161034e989796959493929190612698565b60405180910390f35b610371600480360381019061036c9190612051565b61199e565b60405161037e9190612724565b60405180910390f35b60025481565b610395611a21565b60648111156103d9576040517f08c379a00000000000000000000000000000000000000000000000000000000081526004016103d09061278b565b60405180910390fd5b60006002549050816002819055507f0b54f396a7798db869bf9f25872cbedf20d2aeb265ee339810cf63061ad30b3081836040516104189291906127ab565b60405180910390a15050565b60606000600560008473ffffffffffffffffffffffffffffffffffffffff1673ffffffffffffffffffffffffffffffffffffffff1681526020019081526020016000208054806020026020016040519081016040528092919081815260200182805480156104b157602002820191906000526020600020905b81548152602001906001019080831161049d575b505050505090506000815167ffffffffffffffff8111156104d5576104d4612461565b5b60405190808252806020026020018201604052801561050e57816020015b6104fb611f6a565b8152602001906001900390816104f35790505b50905060005b8251811015610799576004838281518110610532576105316127d4565b5b60200260200101518154811061054b5761054a6127d4565b5b9060005260206000209060070201604051806101000160405290816000820160009054906101000a900473ffffffffffffffffffffffffffffffffffffffff1673ffffffffffffffffffffffffffffffffffffffff1673ffffffffffffffffffffffffffffffffffffffff1681526020016001820154815260200160028201548152602001600382015481526020016004820180546105e990612832565b80601f016020809104026020016040519081016040528092919081815260200182805461061590612832565b80156106625780601f1061063757610100808354040283529160200191610662565b820191906000526020600020905b81548152906001019060200180831161064557829003601f168201915b5050505050815260200160058201805461067b90612832565b80601f01602080910402602001604051908101604052809291908181526020018280546106a790612832565b80156106f45780601f106106c9576101008083540402835291602001916106f4565b820191906000526020600020905b8154815290600101906020018083116106d757829003601f168201915b505050505081526020016006820160009054906101000a900460ff161515151581526020016006820160019054906101000a900473ffffffffffffffffffffffffffffffffffffffff1673ffffffffffffffffffffffffffffffffffffffff1673ffffffffffffffffffffffffffffffffffffffff1681525050828281518110610781576107806127d4565b5b60200260200101819052508080600101915050610514565b508092505050919050565b6107ac611a9f565b60048054905081106107f3576040517f08c379a00000000000000000000000000000000000000000000000000000000081526004016107ea906128af565b60405180910390fd5b600060048281548110610809576108086127d4565b5b906000526020600020906007020190503373ffffffffffffffffffffffffffffffffffffffff168160060160019054906101000a900473ffffffffffffffffffffffffffffffffffffffff1673ffffffffffffffffffffffffffffffffffffffff16146108ab576040517f08c379a00000000000000000000000000000000000000000000000000000000081526004016108a29061291b565b60405180910390fd5b8060060160009054906101000a900460ff166108fc576040517f08c379a00000000000000000000000000000000000000000000000000000000081526004016108f390612987565b60405180910390fd5b8060020154421015610943576040517f08c379a000000000000000000000000000000000000000000000000000000000815260040161093a906129f3565b60405180910390fd5b80600301544210610989576040517f08c379a000000000000000000000000000000000000000000000000000000000815260040161098090612a5f565b60405180910390fd5b60006064600254836001015461099f9190612aae565b6109a99190612b1f565b905060008183600101546109bd9190612b50565b905060008360060160006101000a81548160ff021916908315150217905550610a326109e7610dfb565b838560000160009054906101000a900473ffffffffffffffffffffffffffffffffffffffff1673ffffffffffffffffffffffffffffffffffffffff16611aee9092919063ffffffff16565b610a8133828560000160009054906101000a900473ffffffffffffffffffffffffffffffffffffffff1673ffffffffffffffffffffffffffffffffffffffff16611aee9092919063ffffffff16565b3373ffffffffffffffffffffffffffffffffffffffff168360000160009054906101000a900473ffffffffffffffffffffffffffffffffffffffff1673ffffffffffffffffffffffffffffffffffffffff16857fbdabf5221c04867ac21f86be137e0609760a5a6d69a2fe2772bdc023d5df167e8486604051610b059291906127ab565b60405180910390a4505050610b18611b74565b50565b610b23611a9f565b6004805490508110610b6a576040517f08c379a0000000000000000000000000000000000000000000000000000000008152600401610b6190612bd0565b60405180910390fd5b600060048281548110610b8057610b7f6127d4565b5b906000526020600020906007020190508060060160009054906101000a900460ff16610be1576040517f08c379a0000000000000000000000000000000000000000000000000000000008152600401610bd890612987565b60405180910390fd5b8060030154421015610c28576040517f08c379a0000000000000000000000000000000000000000000000000000000008152600401610c1f90612c3c565b60405180910390fd5b60008160060160006101000a81548160ff021916908315150217905550610c983382600101548360000160009054906101000a900473ffffffffffffffffffffffffffffffffffffffff1673ffffffffffffffffffffffffffffffffffffffff16611aee9092919063ffffffff16565b3373ffffffffffffffffffffffffffffffffffffffff168160000160009054906101000a900473ffffffffffffffffffffffffffffffffffffffff1673ffffffffffffffffffffffffffffffffffffffff16837f19193c14e304bcaafa1323889b15c70abcee51dc8cce9b0a4f21040ed456a4af8460010154604051610d1e9190611ff6565b60405180910390a450610d2f611b74565b50565b610d3a611a21565b610d446000611b7e565b565b60008273ffffffffffffffffffffffffffffffffffffffff166370a08231836040518263ffffffff1660e01b8152600401610d8191906123fc565b602060405180830381865afa158015610d9e573d6000803e3d6000fd5b505050506040513d601f19601f82011682018060405250810190610dc29190612c71565b905092915050565b60056020528160005260406000208181548110610de657600080fd5b90600052602060002001600091509150505481565b6000600160009054906101000a900473ffffffffffffffffffffffffffffffffffffffff16905090565b6000600480549050905090565b6000600560008373ffffffffffffffffffffffffffffffffffffffff1673ffffffffffffffffffffffffffffffffffffffff168152602001908152602001600020805490509050919050565b60008111610ec1576040517f08c379a0000000000000000000000000000000000000000000000000000000008152600401610eb890612cea565b60405180910390fd5b816001600480549050610ed49190612b50565b1115610f15576040517f08c379a0000000000000000000000000000000000000000000000000000000008152600401610f0c90612d56565b60405180910390fd5b600060048381548110610f2b57610f2a6127d4565b5b906000526020600020906007020190508060020154421015610f82576040517f08c379a0000000000000000000000000000000000000000000000000000000008152600401610f7990612de8565b60405180910390fd5b4281600301541015610fc9576040517f08c379a0000000000000000000000000000000000000000000000000000000008152600401610fc090612e54565b60405180910390fd5b3373ffffffffffffffffffffffffffffffffffffffff168160060160019054906101000a900473ffffffffffffffffffffffffffffffffffffffff1673ffffffffffffffffffffffffffffffffffffffff161461105b576040517f08c379a000000000000000000000000000000000000000000000000000000000815260040161105290612ec0565b60405180910390fd5b8060060160009054906101000a900460ff166110ac576040517f08c379a00000000000000000000000000000000000000000000000000000000081526004016110a390612f52565b60405180910390fd5b6110fd3330848460000160009054906101000a900473ffffffffffffffffffffffffffffffffffffffff1673ffffffffffffffffffffffffffffffffffffffff16611c44909392919063ffffffff16565b818160010160008282546111119190612f72565b9250508190555081600360003373ffffffffffffffffffffffffffffffffffffffff1673ffffffffffffffffffffffffffffffffffffffff168152602001908152602001600020600085815260200190815260200160002060008282546111789190612f72565b92505081905550823373ffffffffffffffffffffffffffffffffffffffff167f8aa8d33ccc20314876b60c2856d09e8426425799fa3b3e5e8c9489dd92239c1384426040516111c89291906127ab565b60405180910390a3505050565b6000600360008473ffffffffffffffffffffffffffffffffffffffff1673ffffffffffffffffffffffffffffffffffffffff168152602001908152602001600020600083815260200190815260200160002054905092915050565b600061123a611a9f565b600073ffffffffffffffffffffffffffffffffffffffff168673ffffffffffffffffffffffffffffffffffffffff16036112a9576040517f08c379a00000000000000000000000000000000000000000000000000000000081526004016112a090612ff2565b60405180910390fd5b428510156112ec576040517f08c379a00000000000000000000000000000000000000000000000000000000081526004016112e39061305e565b60405180910390fd5b84841161132e576040517f08c379a0000000000000000000000000000000000000000000000000000000008152600401611325906130f0565b60405180910390fd5b6000835111611372576040517f08c379a00000000000000000000000000000000000000000000000000000000081526004016113699061315c565b60405180910390fd5b60005b600560003373ffffffffffffffffffffffffffffffffffffffff1673ffffffffffffffffffffffffffffffffffffffff168152602001908152602001600020805490508110156114e05760006004600560003373ffffffffffffffffffffffffffffffffffffffff1673ffffffffffffffffffffffffffffffffffffffff1681526020019081526020016000208381548110611414576114136127d4565b5b9060005260206000200154815481106114305761142f6127d4565b5b906000526020600020906007020190508773ffffffffffffffffffffffffffffffffffffffff168160000160009054906101000a900473ffffffffffffffffffffffffffffffffffffffff1673ffffffffffffffffffffffffffffffffffffffff16036114d2576040517f08c379a00000000000000000000000000000000000000000000000000000000081526004016114c9906131c8565b60405180910390fd5b508080600101915050611375565b5060006040518061010001604052808873ffffffffffffffffffffffffffffffffffffffff168152602001600081526020018781526020018681526020018581526020018481526020016001151581526020013373ffffffffffffffffffffffffffffffffffffffff16815250905060006004805490509050600482908060018154018082558091505060019003906000526020600020906007020160009091909190915060008201518160000160006101000a81548173ffffffffffffffffffffffffffffffffffffffff021916908373ffffffffffffffffffffffffffffffffffffffff16021790555060208201518160010155604082015181600201556060820151816003015560808201518160040190816115ff9190613394565b5060a08201518160050190816116159190613394565b5060c08201518160060160006101000a81548160ff02191690831515021790555060e08201518160060160016101000a81548173ffffffffffffffffffffffffffffffffffffffff021916908373ffffffffffffffffffffffffffffffffffffffff1602179055505050600560003373ffffffffffffffffffffffffffffffffffffffff1673ffffffffffffffffffffffffffffffffffffffff1681526020019081526020016000208190806001815401808255809150506001900390600052602060002001600090919091909150553373ffffffffffffffffffffffffffffffffffffffff168873ffffffffffffffffffffffffffffffffffffffff16827fac8c16686c9284d0841c211065beada17af722c6e1759bdc4e4bd9ebbe10e72860008b8b604051611748939291906134a1565b60405180910390a4809250505061175d611b74565b95945050505050565b61176e611a21565b600073ffffffffffffffffffffffffffffffffffffffff168173ffffffffffffffffffffffffffffffffffffffff16036117dd576040517f08c379a00000000000000000000000000000000000000000000000000000000081526004016117d49061354a565b60405180910390fd5b6117e681611b7e565b50565b600481815481106117f957600080fd5b90600052602060002090600702016000915090508060000160009054906101000a900473ffffffffffffffffffffffffffffffffffffffff169080600101549080600201549080600301549080600401805461185490612832565b80601f016020809104026020016040519081016040528092919081815260200182805461188090612832565b80156118cd5780601f106118a2576101008083540402835291602001916118cd565b820191906000526020600020905b8154815290600101906020018083116118b057829003601f168201915b5050505050908060050180546118e290612832565b80601f016020809104026020016040519081016040528092919081815260200182805461190e90612832565b801561195b5780601f106119305761010080835404028352916020019161195b565b820191906000526020600020905b81548152906001019060200180831161193e57829003601f168201915b5050505050908060060160009054906101000a900460ff16908060060160019054906101000a900473ffffffffffffffffffffffffffffffffffffffff16905088565b600060048054905082106119e7576040517f08c379a00000000000000000000000000000000000000000000000000000000081526004016119de906128af565b60405180910390fd5b600482815481106119fb576119fa6127d4565b5b906000526020600020906007020160060160009054906101000a900460ff169050919050565b611a29611ccd565b73ffffffffffffffffffffffffffffffffffffffff16611a47610dfb565b73ffffffffffffffffffffffffffffffffffffffff1614611a9d576040517f08c379a0000000000000000000000000000000000000000000000000000000008152600401611a94906135b6565b60405180910390fd5b565b600260005403611ae4576040517f08c379a0000000000000000000000000000000000000000000000000000000008152600401611adb90613622565b60405180910390fd5b6002600081905550565b611b6f8363a9059cbb60e01b8484604051602401611b0d929190613642565b604051602081830303815290604052907bffffffffffffffffffffffffffffffffffffffffffffffffffffffff19166020820180517bffffffffffffffffffffffffffffffffffffffffffffffffffffffff8381831617835250505050611cd5565b505050565b6001600081905550565b6000600160009054906101000a900473ffffffffffffffffffffffffffffffffffffffff16905081600160006101000a81548173ffffffffffffffffffffffffffffffffffffffff021916908373ffffffffffffffffffffffffffffffffffffffff1602179055508173ffffffffffffffffffffffffffffffffffffffff168173ffffffffffffffffffffffffffffffffffffffff167f8be0079c531659141344cd1fd0a4f28419497f9722a3daafe3b4186f6b6457e060405160405180910390a35050565b611cc7846323b872dd60e01b858585604051602401611c659392919061366b565b604051602081830303815290604052907bffffffffffffffffffffffffffffffffffffffffffffffffffffffff19166020820180517bffffffffffffffffffffffffffffffffffffffffffffffffffffffff8381831617835250505050611cd5565b50505050565b600033905090565b6000611d37826040518060400160405280602081526020017f5361666545524332303a206c6f772d6c6576656c2063616c6c206661696c65648152508573ffffffffffffffffffffffffffffffffffffffff16611d9d9092919063ffffffff16565b9050600081511480611d59575080806020019051810190611d5891906136ce565b5b611d98576040517f08c379a0000000000000000000000000000000000000000000000000000000008152600401611d8f9061376d565b60405180910390fd5b505050565b6060611dac8484600085611db5565b90509392505050565b606082471015611dfa576040517f08c379a0000000000000000000000000000000000000000000000000000000008152600401611df1906137ff565b60405180910390fd5b6000808673ffffffffffffffffffffffffffffffffffffffff168587604051611e239190613866565b60006040518083038185875af1925050503d8060008114611e60576040519150601f19603f3d011682016040523d82523d6000602084013e611e65565b606091505b5091509150611e7687838387611e82565b92505050949350505050565b60608315611ee4576000835103611edc57611e9c85611ef7565b611edb576040517f08c379a0000000000000000000000000000000000000000000000000000000008152600401611ed2906138c9565b60405180910390fd5b5b829050611eef565b611eee8383611f1a565b5b949350505050565b6000808273ffffffffffffffffffffffffffffffffffffffff163b119050919050565b600082511115611f2d5781518083602001fd5b806040517f08c379a0000000000000000000000000000000000000000000000000000000008152600401611f6191906138e9565b60405180910390fd5b604051806101000160405280600073ffffffffffffffffffffffffffffffffffffffff1681526020016000815260200160008152602001600081526020016060815260200160608152602001600015158152602001600073ffffffffffffffffffffffffffffffffffffffff1681525090565b6000819050919050565b611ff081611fdd565b82525050565b600060208201905061200b6000830184611fe7565b92915050565b6000604051905090565b600080fd5b600080fd5b61202e81611fdd565b811461203957600080fd5b50565b60008135905061204b81612025565b92915050565b6000602082840312156120675761206661201b565b5b60006120758482850161203c565b91505092915050565b600073ffffffffffffffffffffffffffffffffffffffff82169050919050565b60006120a98261207e565b9050919050565b6120b98161209e565b81146120c457600080fd5b50565b6000813590506120d6816120b0565b92915050565b6000602082840312156120f2576120f161201b565b5b6000612100848285016120c7565b91505092915050565b600081519050919050565b600082825260208201905092915050565b6000819050602082019050919050565b61213e8161209e565b82525050565b61214d81611fdd565b82525050565b600081519050919050565b600082825260208201905092915050565b60005b8381101561218d578082015181840152602081019050612172565b60008484015250505050565b6000601f19601f8301169050919050565b60006121b582612153565b6121bf818561215e565b93506121cf81856020860161216f565b6121d881612199565b840191505092915050565b60008115159050919050565b6121f8816121e3565b82525050565b6000610100830160008301516122176000860182612135565b50602083015161222a6020860182612144565b50604083015161223d6040860182612144565b5060608301516122506060860182612144565b506080830151848203608086015261226882826121aa565b91505060a083015184820360a086015261228282826121aa565b91505060c083015161229760c08601826121ef565b5060e08301516122aa60e0860182612135565b508091505092915050565b60006122c183836121fe565b905092915050565b6000602082019050919050565b60006122e182612109565b6122eb8185612114565b9350836020820285016122fd85612125565b8060005b85811015612339578484038952815161231a85826122b5565b9450612325836122c9565b925060208a01995050600181019050612301565b50829750879550505050505092915050565b6000602082019050818103600083015261236581846122d6565b905092915050565b600080604083850312156123845761238361201b565b5b6000612392858286016120c7565b92505060206123a3858286016120c7565b9150509250929050565b600080604083850312156123c4576123c361201b565b5b60006123d2858286016120c7565b92505060206123e38582860161203c565b9150509250929050565b6123f68161209e565b82525050565b600060208201905061241160008301846123ed565b92915050565b6000806040838503121561242e5761242d61201b565b5b600061243c8582860161203c565b925050602061244d8582860161203c565b9150509250929050565b600080fd5b600080fd5b7f4e487b7100000000000000000000000000000000000000000000000000000000600052604160045260246000fd5b61249982612199565b810181811067ffffffffffffffff821117156124b8576124b7612461565b5b80604052505050565b60006124cb612011565b90506124d78282612490565b919050565b600067ffffffffffffffff8211156124f7576124f6612461565b5b61250082612199565b9050602081019050919050565b82818337600083830152505050565b600061252f61252a846124dc565b6124c1565b90508281526020810184848401111561254b5761254a61245c565b5b61255684828561250d565b509392505050565b600082601f83011261257357612572612457565b5b813561258384826020860161251c565b91505092915050565b600080600080600060a086880312156125a8576125a761201b565b5b60006125b6888289016120c7565b95505060206125c78882890161203c565b94505060406125d88882890161203c565b935050606086013567ffffffffffffffff8111156125f9576125f8612020565b5b6126058882890161255e565b925050608086013567ffffffffffffffff81111561262657612625612020565b5b6126328882890161255e565b9150509295509295909350565b600082825260208201905092915050565b600061265b82612153565b612665818561263f565b935061267581856020860161216f565b61267e81612199565b840191505092915050565b612692816121e3565b82525050565b6000610100820190506126ae600083018b6123ed565b6126bb602083018a611fe7565b6126c86040830189611fe7565b6126d56060830188611fe7565b81810360808301526126e78187612650565b905081810360a08301526126fb8186612650565b905061270a60c0830185612689565b61271760e08301846123ed565b9998505050505050505050565b60006020820190506127396000830184612689565b92915050565b7f496e76616c69642070657263656e746167650000000000000000000000000000600082015250565b600061277560128361263f565b91506127808261273f565b602082019050919050565b600060208201905081810360008301526127a481612768565b9050919050565b60006040820190506127c06000830185611fe7565b6127cd6020830184611fe7565b9392505050565b7f4e487b7100000000000000000000000000000000000000000000000000000000600052603260045260246000fd5b7f4e487b7100000000000000000000000000000000000000000000000000000000600052602260045260246000fd5b6000600282049050600182168061284a57607f821691505b60208210810361285d5761285c612803565b5b50919050565b7f496e76616c6964206c6f636b2049440000000000000000000000000000000000600082015250565b6000612899600f8361263f565b91506128a482612863565b602082019050919050565b600060208201905081810360008301526128c88161288c565b9050919050565b7f4e6f7420746865206c6f636b204f776e65720000000000000000000000000000600082015250565b600061290560128361263f565b9150612910826128cf565b602082019050919050565b60006020820190508181036000830152612934816128f8565b9050919050565b7f4c6f636b206973206e6f74204163746976650000000000000000000000000000600082015250565b600061297160128361263f565b915061297c8261293b565b602082019050919050565b600060208201905081810360008301526129a081612964565b9050919050565b7f4c6f636b20706572696f64206e6f742073746172746564000000000000000000600082015250565b60006129dd60178361263f565b91506129e8826129a7565b602082019050919050565b60006020820190508181036000830152612a0c816129d0565b9050919050565b7f4c6f636b20706572696f6420616c726561647920656e64656400000000000000600082015250565b6000612a4960198361263f565b9150612a5482612a13565b602082019050919050565b60006020820190508181036000830152612a7881612a3c565b9050919050565b7f4e487b7100000000000000000000000000000000000000000000000000000000600052601160045260246000fd5b6000612ab982611fdd565b9150612ac483611fdd565b9250828202612ad281611fdd565b91508282048414831517612ae957612ae8612a7f565b5b5092915050565b7f4e487b7100000000000000000000000000000000000000000000000000000000600052601260045260246000fd5b6000612b2a82611fdd565b9150612b3583611fdd565b925082612b4557612b44612af0565b5b828204905092915050565b6000612b5b82611fdd565b9150612b6683611fdd565b9250828203905081811115612b7e57612b7d612a7f565b5b92915050565b7f496e76616c6964204c6f636b2049440000000000000000000000000000000000600082015250565b6000612bba600f8361263f565b9150612bc582612b84565b602082019050919050565b60006020820190508181036000830152612be981612bad565b9050919050565b7f4c6f636b20706572696f64206e6f7420656e6465642079657421000000000000600082015250565b6000612c26601a8361263f565b9150612c3182612bf0565b602082019050919050565b60006020820190508181036000830152612c5581612c19565b9050919050565b600081519050612c6b81612025565b92915050565b600060208284031215612c8757612c8661201b565b5b6000612c9584828501612c5c565b91505092915050565b7f616d6f756e742073686f756c64206e6f74206265203000000000000000000000600082015250565b6000612cd460168361263f565b9150612cdf82612c9e565b602082019050919050565b60006020820190508181036000830152612d0381612cc7565b9050919050565b7f6c6f636b657220646f65736e2774206578697374000000000000000000000000600082015250565b6000612d4060148361263f565b9150612d4b82612d0a565b602082019050919050565b60006020820190508181036000830152612d6f81612d33565b9050919050565b7f4c6f636b696e6720706572696f6420686173206e6f742073746172746564207960008201527f6574000000000000000000000000000000000000000000000000000000000000602082015250565b6000612dd260228361263f565b9150612ddd82612d76565b604082019050919050565b60006020820190508181036000830152612e0181612dc5565b9050919050565b7f4c6f636b696e6720706572696f6420686173206265656e20656e646564000000600082015250565b6000612e3e601d8361263f565b9150612e4982612e08565b602082019050919050565b60006020820190508181036000830152612e6d81612e31565b9050919050565b7f4e6f7420746865204c6f636b206f776e65720000000000000000000000000000600082015250565b6000612eaa60128361263f565b9150612eb582612e74565b602082019050919050565b60006020820190508181036000830152612ed981612e9d565b9050919050565b7f43616e6e6f74206164642066756e647320746f20616e20696e6163746976652060008201527f4c6f636b00000000000000000000000000000000000000000000000000000000602082015250565b6000612f3c60248361263f565b9150612f4782612ee0565b604082019050919050565b60006020820190508181036000830152612f6b81612f2f565b9050919050565b6000612f7d82611fdd565b9150612f8883611fdd565b9250828201905080821115612fa057612f9f612a7f565b5b92915050565b7f496e76616c696420546f6b656e20416464726573730000000000000000000000600082015250565b6000612fdc60158361263f565b9150612fe782612fa6565b602082019050919050565b6000602082019050818103600083015261300b81612fcf565b9050919050565b7f53746172742054696d65206d75737420626520696e2074686520667574757265600082015250565b600061304860208361263f565b915061305382613012565b602082019050919050565b600060208201905081810360008301526130778161303b565b9050919050565b7f456e642074696d65206d7573742062652061667465722074686520737461727460008201527f2074696d65000000000000000000000000000000000000000000000000000000602082015250565b60006130da60258361263f565b91506130e58261307e565b604082019050919050565b60006020820190508181036000830152613109816130cd565b9050919050565b7f5469746c652063616e6e6f7420626520656d7074790000000000000000000000600082015250565b600061314660158361263f565b915061315182613110565b602082019050919050565b6000602082019050818103600083015261317581613139565b9050919050565b7f546f6b656e20616c7265616479207573656420666f722061206c6f636b000000600082015250565b60006131b2601d8361263f565b91506131bd8261317c565b602082019050919050565b600060208201905081810360008301526131e1816131a5565b9050919050565b60008190508160005260206000209050919050565b60006020601f8301049050919050565b600082821b905092915050565b60006008830261324a7fffffffffffffffffffffffffffffffffffffffffffffffffffffffffffffffff8261320d565b613254868361320d565b95508019841693508086168417925050509392505050565b6000819050919050565b600061329161328c61328784611fdd565b61326c565b611fdd565b9050919050565b6000819050919050565b6132ab83613276565b6132bf6132b782613298565b84845461321a565b825550505050565b600090565b6132d46132c7565b6132df8184846132a2565b505050565b5b81811015613303576132f86000826132cc565b6001810190506132e5565b5050565b601f82111561334857613319816131e8565b613322846131fd565b81016020851015613331578190505b61334561333d856131fd565b8301826132e4565b50505b505050565b600082821c905092915050565b600061336b6000198460080261334d565b1980831691505092915050565b6000613384838361335a565b9150826002028217905092915050565b61339d82612153565b67ffffffffffffffff8111156133b6576133b5612461565b5b6133c08254612832565b6133cb828285613307565b600060209050601f8311600181146133fe57600084156133ec578287015190505b6133f68582613378565b86555061345e565b601f19841661340c866131e8565b60005b828110156134345784890151825560018201915060208501945060208101905061340f565b86831015613451578489015161344d601f89168261335a565b8355505b6001600288020188555050505b505050505050565b6000819050919050565b600061348b61348661348184613466565b61326c565b611fdd565b9050919050565b61349b81613470565b82525050565b60006060820190506134b66000830186613492565b6134c36020830185611fe7565b6134d06040830184611fe7565b949350505050565b7f4f776e61626c653a206e6577206f776e657220697320746865207a65726f206160008201527f6464726573730000000000000000000000000000000000000000000000000000602082015250565b600061353460268361263f565b915061353f826134d8565b604082019050919050565b6000602082019050818103600083015261356381613527565b9050919050565b7f4f776e61626c653a2063616c6c6572206973206e6f7420746865206f776e6572600082015250565b60006135a060208361263f565b91506135ab8261356a565b602082019050919050565b600060208201905081810360008301526135cf81613593565b9050919050565b7f5265656e7472616e637947756172643a207265656e7472616e742063616c6c00600082015250565b600061360c601f8361263f565b9150613617826135d6565b602082019050919050565b6000602082019050818103600083015261363b816135ff565b9050919050565b600060408201905061365760008301856123ed565b6136646020830184611fe7565b9392505050565b600060608201905061368060008301866123ed565b61368d60208301856123ed565b61369a6040830184611fe7565b949350505050565b6136ab816121e3565b81146136b657600080fd5b50565b6000815190506136c8816136a2565b92915050565b6000602082840312156136e4576136e361201b565b5b60006136f2848285016136b9565b91505092915050565b7f5361666545524332303a204552433230206f7065726174696f6e20646964206e60008201527f6f74207375636365656400000000000000000000000000000000000000000000602082015250565b6000613757602a8361263f565b9150613762826136fb565b604082019050919050565b600060208201905081810360008301526137868161374a565b9050919050565b7f416464726573733a20696e73756666696369656e742062616c616e636520666f60008201527f722063616c6c0000000000000000000000000000000000000000000000000000602082015250565b60006137e960268361263f565b91506137f48261378d565b604082019050919050565b60006020820190508181036000830152613818816137dc565b9050919050565b600081519050919050565b600081905092915050565b60006138408261381f565b61384a818561382a565b935061385a81856020860161216f565b80840191505092915050565b60006138728284613835565b915081905092915050565b7f416464726573733a2063616c6c20746f206e6f6e2d636f6e7472616374000000600082015250565b60006138b3601d8361263f565b91506138be8261387d565b602082019050919050565b600060208201905081810360008301526138e2816138a6565b9050919050565b600060208201905081810360008301526139038184612650565b90509291505056fea26469706673582212204dd81b1d884ec8ccc38d00b9ed5c96adad67ecdbda001a1a4cfa3ae9265ffb6f64736f6c634300081b0033",
  "linkReferences": {},
  "deployedLinkReferences": {}
}