{
  "_format": "hh-sol-artifact-1",
  "contractName": "TokenLocker",
  "sourceName": "contracts/TokenLocker.sol",
  "abi": [
    {
      "inputs": [],
      "stateMutability": "nonpayable",
      "type": "constructor"
    },
    {
      "anonymous": false,
      "inputs": [
        {
          "indexed": true,
          "internalType": "uint256",
          "name": "lockID",
          "type": "uint256"
        },
        {
          "indexed": true,
          "internalType": "address",
          "name": "token",
          "type": "address"
        },
        {
          "indexed": true,
          "internalType": "address",
          "name": "owner",
          "type": "address"
        },
        {
          "indexed": false,
          "internalType": "uint256",
          "name": "amount",
          "type": "uint256"
        }
      ],
      "name": "EmergencyWithdraw",
      "type": "event"
    },
    {
      "anonymous": false,
      "inputs": [
        {
          "indexed": true,
          "internalType": "address",
          "name": "previousOwner",
          "type": "address"
        },
        {
          "indexed": true,
          "internalType": "address",
          "name": "newOwner",
          "type": "address"
        }
      ],
      "name": "OwnershipTransferred",
      "type": "event"
    },
    {
      "anonymous": false,
      "inputs": [
        {
          "indexed": true,
          "internalType": "uint256",
          "name": "lockID",
          "type": "uint256"
        },
        {
          "indexed": true,
          "internalType": "address",
          "name": "token",
          "type": "address"
        },
        {
          "indexed": false,
          "internalType": "uint256",
          "name": "amount",
          "type": "uint256"
        },
        {
          "indexed": false,
          "internalType": "uint256",
          "name": "startTime",
          "type": "uint256"
        },
        {
          "indexed": false,
          "internalType": "uint256",
          "name": "endTime",
          "type": "uint256"
        },
        {
          "indexed": true,
          "internalType": "address",
          "name": "owner",
          "type": "address"
        }
      ],
      "name": "TokensLocked",
      "type": "event"
    },
    {
      "anonymous": false,
      "inputs": [
        {
          "indexed": true,
          "internalType": "uint256",
          "name": "lockID",
          "type": "uint256"
        },
        {
          "indexed": true,
          "internalType": "address",
          "name": "token",
          "type": "address"
        },
        {
          "indexed": true,
          "internalType": "address",
          "name": "owner",
          "type": "address"
        },
        {
          "indexed": false,
          "internalType": "uint256",
          "name": "amount",
          "type": "uint256"
        }
      ],
      "name": "TokensUnlocked",
      "type": "event"
    },
    {
      "inputs": [
        {
          "internalType": "address",
          "name": "tokenAddress",
          "type": "address"
        },
        {
          "internalType": "uint256",
          "name": "amount",
          "type": "uint256"
        },
        {
          "internalType": "uint256",
          "name": "percentage",
          "type": "uint256"
        },
        {
          "internalType": "uint256",
          "name": "startTime",
          "type": "uint256"
        },
        {
          "internalType": "uint256",
          "name": "endTime",
          "type": "uint256"
        },
        {
          "internalType": "string",
          "name": "title",
          "type": "string"
        },
        {
          "internalType": "string",
          "name": "description",
          "type": "string"
        }
      ],
      "name": "createLock",
      "outputs": [
        {
          "internalType": "uint256",
          "name": "",
          "type": "uint256"
        }
      ],
      "stateMutability": "nonpayable",
      "type": "function"
    },
    {
      "inputs": [
        {
          "internalType": "uint256",
          "name": "lockId",
          "type": "uint256"
        }
      ],
      "name": "emergencyWithdraw",
      "outputs": [],
      "stateMutability": "nonpayable",
      "type": "function"
    },
    {
      "inputs": [],
      "name": "getTotalLocks",
      "outputs": [
        {
          "internalType": "uint256",
          "name": "",
          "type": "uint256"
        }
      ],
      "stateMutability": "view",
      "type": "function"
    },
    {
      "inputs": [
        {
          "internalType": "address",
          "name": "user",
          "type": "address"
        }
      ],
      "name": "getUserLockCount",
      "outputs": [
        {
          "internalType": "uint256",
          "name": "",
          "type": "uint256"
        }
      ],
      "stateMutability": "view",
      "type": "function"
    },
    {
      "inputs": [
        {
          "internalType": "address",
          "name": "user",
          "type": "address"
        }
      ],
      "name": "getUserLocks",
      "outputs": [
        {
          "components": [
            {
              "internalType": "address",
              "name": "tokenAddress",
              "type": "address"
            },
            {
              "internalType": "uint256",
              "name": "amount",
              "type": "uint256"
            },
            {
              "internalType": "uint256",
              "name": "percentage",
              "type": "uint256"
            },
            {
              "internalType": "uint256",
              "name": "startTime",
              "type": "uint256"
            },
            {
              "internalType": "uint256",
              "name": "endTime",
              "type": "uint256"
            },
            {
              "internalType": "string",
              "name": "title",
              "type": "string"
            },
            {
              "internalType": "string",
              "name": "description",
              "type": "string"
            },
            {
              "internalType": "bool",
              "name": "isActive",
              "type": "bool"
            },
            {
              "internalType": "address",
              "name": "owner",
              "type": "address"
            }
          ],
          "internalType": "struct TokenLocker.Lock[]",
          "name": "",
          "type": "tuple[]"
        }
      ],
      "stateMutability": "view",
      "type": "function"
    },
    {
      "inputs": [
        {
          "internalType": "uint256",
          "name": "lockId",
          "type": "uint256"
        }
      ],
      "name": "isLockActive",
      "outputs": [
        {
          "internalType": "bool",
          "name": "",
          "type": "bool"
        }
      ],
      "stateMutability": "view",
      "type": "function"
    },
    {
      "inputs": [
        {
          "internalType": "uint256",
          "name": "",
          "type": "uint256"
        }
      ],
      "name": "locks",
      "outputs": [
        {
          "internalType": "address",
          "name": "tokenAddress",
          "type": "address"
        },
        {
          "internalType": "uint256",
          "name": "amount",
          "type": "uint256"
        },
        {
          "internalType": "uint256",
          "name": "percentage",
          "type": "uint256"
        },
        {
          "internalType": "uint256",
          "name": "startTime",
          "type": "uint256"
        },
        {
          "internalType": "uint256",
          "name": "endTime",
          "type": "uint256"
        },
        {
          "internalType": "string",
          "name": "title",
          "type": "string"
        },
        {
          "internalType": "string",
          "name": "description",
          "type": "string"
        },
        {
          "internalType": "bool",
          "name": "isActive",
          "type": "bool"
        },
        {
          "internalType": "address",
          "name": "owner",
          "type": "address"
        }
      ],
      "stateMutability": "view",
      "type": "function"
    },
    {
      "inputs": [],
      "name": "owner",
      "outputs": [
        {
          "internalType": "address",
          "name": "",
          "type": "address"
        }
      ],
      "stateMutability": "view",
      "type": "function"
    },
    {
      "inputs": [],
      "name": "renounceOwnership",
      "outputs": [],
      "stateMutability": "nonpayable",
      "type": "function"
    },
    {
      "inputs": [
        {
          "internalType": "address",
          "name": "newOwner",
          "type": "address"
        }
      ],
      "name": "transferOwnership",
      "outputs": [],
      "stateMutability": "nonpayable",
      "type": "function"
    },
    {
      "inputs": [
        {
          "internalType": "uint256",
          "name": "lockId",
          "type": "uint256"
        }
      ],
      "name": "unlock",
      "outputs": [],
      "stateMutability": "nonpayable",
      "type": "function"
    },
    {
      "inputs": [
        {
          "internalType": "address",
          "name": "",
          "type": "address"
        },
        {
          "internalType": "uint256",
          "name": "",
          "type": "uint256"
        }
      ],
      "name": "userLockIndices",
      "outputs": [
        {
          "internalType": "uint256",
          "name": "",
          "type": "uint256"
        }
      ],
      "stateMutability": "view",
      "type": "function"
    }
  ],
  "bytecode": "0x608060405234801561001057600080fd5b50600160008190555061003561002a61003a60201b60201c565b61004260201b60201c565b610108565b600033905090565b6000600160009054906101000a900473ffffffffffffffffffffffffffffffffffffffff16905081600160006101000a81548173ffffffffffffffffffffffffffffffffffffffff021916908373ffffffffffffffffffffffffffffffffffffffff1602179055508173ffffffffffffffffffffffffffffffffffffffff168173ffffffffffffffffffffffffffffffffffffffff167f8be0079c531659141344cd1fd0a4f28419497f9722a3daafe3b4186f6b6457e060405160405180910390a35050565b612e8f806101176000396000f3fe608060405234801561001057600080fd5b50600436106100b45760003560e01c806394c93b471161007157806394c93b47146101795780639b7d02ad14610197578063c979cfbd146101c7578063f2fde38b146101f7578063f4dadc6114610213578063fdf0fa1c1461024b576100b4565b806323a35de9146100b95780635312ea8e146100e95780636198e33914610105578063715018a61461012157806380e984101461012b5780638da5cb5b1461015b575b600080fd5b6100d360048036038101906100ce91906119ec565b61027b565b6040516100e09190611c7a565b60405180910390f35b61010360048036038101906100fe9190611cc8565b610605565b005b61011f600480360381019061011a9190611cc8565b6108ec565b005b610129610b95565b005b61014560048036038101906101409190611cf5565b610ba9565b6040516101529190611d44565b60405180910390f35b610163610bda565b6040516101709190611d6e565b60405180910390f35b610181610c04565b60405161018e9190611d44565b60405180910390f35b6101b160048036038101906101ac91906119ec565b610c11565b6040516101be9190611d44565b60405180910390f35b6101e160048036038101906101dc9190611ebe565b610c5d565b6040516101ee9190611d44565b60405180910390f35b610211600480360381019061020c91906119ec565b6110f6565b005b61022d60048036038101906102289190611cc8565b611179565b60405161024299989796959493929190611ff1565b60405180910390f35b61026560048036038101906102609190611cc8565b611334565b604051610272919061208c565b60405180910390f35b60606000600360008473ffffffffffffffffffffffffffffffffffffffff1673ffffffffffffffffffffffffffffffffffffffff16815260200190815260200160002080548060200260200160405190810160405280929190818152602001828054801561030857602002820191906000526020600020905b8154815260200190600101908083116102f4575b505050505090506000815167ffffffffffffffff81111561032c5761032b611d93565b5b60405190808252806020026020018201604052801561036557816020015b610352611900565b81526020019060019003908161034a5790505b50905060005b82518110156105fa576002838281518110610389576103886120a7565b5b6020026020010151815481106103a2576103a16120a7565b5b9060005260206000209060080201604051806101200160405290816000820160009054906101000a900473ffffffffffffffffffffffffffffffffffffffff1673ffffffffffffffffffffffffffffffffffffffff1673ffffffffffffffffffffffffffffffffffffffff1681526020016001820154815260200160028201548152602001600382015481526020016004820154815260200160058201805461044a90612105565b80601f016020809104026020016040519081016040528092919081815260200182805461047690612105565b80156104c35780601f10610498576101008083540402835291602001916104c3565b820191906000526020600020905b8154815290600101906020018083116104a657829003601f168201915b505050505081526020016006820180546104dc90612105565b80601f016020809104026020016040519081016040528092919081815260200182805461050890612105565b80156105555780601f1061052a57610100808354040283529160200191610555565b820191906000526020600020905b81548152906001019060200180831161053857829003601f168201915b505050505081526020016007820160009054906101000a900460ff161515151581526020016007820160019054906101000a900473ffffffffffffffffffffffffffffffffffffffff1673ffffffffffffffffffffffffffffffffffffffff1673ffffffffffffffffffffffffffffffffffffffff16815250508282815181106105e2576105e16120a7565b5b6020026020010181905250808060010191505061036b565b508092505050919050565b61060d6113b7565b6002805490508110610654576040517f08c379a000000000000000000000000000000000000000000000000000000000815260040161064b90612182565b60405180910390fd5b60006002828154811061066a576106696120a7565b5b906000526020600020906008020190503373ffffffffffffffffffffffffffffffffffffffff168160070160019054906101000a900473ffffffffffffffffffffffffffffffffffffffff1673ffffffffffffffffffffffffffffffffffffffff161461070c576040517f08c379a0000000000000000000000000000000000000000000000000000000008152600401610703906121ee565b60405180910390fd5b8060070160009054906101000a900460ff1661075d576040517f08c379a00000000000000000000000000000000000000000000000000000000081526004016107549061225a565b60405180910390fd5b600060646014836001015461077291906122a9565b61077c919061231a565b90506000818360010154610790919061234b565b905060008360070160006101000a81548160ff0219169083151502179055506108056107ba610bda565b838560000160009054906101000a900473ffffffffffffffffffffffffffffffffffffffff1673ffffffffffffffffffffffffffffffffffffffff166114069092919063ffffffff16565b61085433828560000160009054906101000a900473ffffffffffffffffffffffffffffffffffffffff1673ffffffffffffffffffffffffffffffffffffffff166114069092919063ffffffff16565b3373ffffffffffffffffffffffffffffffffffffffff168360000160009054906101000a900473ffffffffffffffffffffffffffffffffffffffff1673ffffffffffffffffffffffffffffffffffffffff16857f94f4de2152ee6835cb1e28e7971d81fbc45d6b5a001a1b61846e64f70b888220846040516108d69190611d44565b60405180910390a45050506108e961148c565b50565b6108f46113b7565b600280549050811061093b576040517f08c379a0000000000000000000000000000000000000000000000000000000008152600401610932906123cb565b60405180910390fd5b600060028281548110610951576109506120a7565b5b906000526020600020906008020190503373ffffffffffffffffffffffffffffffffffffffff168160070160019054906101000a900473ffffffffffffffffffffffffffffffffffffffff1673ffffffffffffffffffffffffffffffffffffffff16146109f3576040517f08c379a00000000000000000000000000000000000000000000000000000000081526004016109ea90612437565b60405180910390fd5b8060070160009054906101000a900460ff16610a44576040517f08c379a0000000000000000000000000000000000000000000000000000000008152600401610a3b9061225a565b60405180910390fd5b8060040154421015610a8b576040517f08c379a0000000000000000000000000000000000000000000000000000000008152600401610a82906124a3565b60405180910390fd5b60008160070160006101000a81548160ff021916908315150217905550610afb3382600101548360000160009054906101000a900473ffffffffffffffffffffffffffffffffffffffff1673ffffffffffffffffffffffffffffffffffffffff166114069092919063ffffffff16565b3373ffffffffffffffffffffffffffffffffffffffff168160000160009054906101000a900473ffffffffffffffffffffffffffffffffffffffff1673ffffffffffffffffffffffffffffffffffffffff16837f19193c14e304bcaafa1323889b15c70abcee51dc8cce9b0a4f21040ed456a4af8460010154604051610b819190611d44565b60405180910390a450610b9261148c565b50565b610b9d611496565b610ba76000611514565b565b60036020528160005260406000208181548110610bc557600080fd5b90600052602060002001600091509150505481565b6000600160009054906101000a900473ffffffffffffffffffffffffffffffffffffffff16905090565b6000600280549050905090565b6000600360008373ffffffffffffffffffffffffffffffffffffffff1673ffffffffffffffffffffffffffffffffffffffff168152602001908152602001600020805490509050919050565b6000610c676113b7565b600073ffffffffffffffffffffffffffffffffffffffff168873ffffffffffffffffffffffffffffffffffffffff1603610cd6576040517f08c379a0000000000000000000000000000000000000000000000000000000008152600401610ccd9061250f565b60405180910390fd5b60008711610d19576040517f08c379a0000000000000000000000000000000000000000000000000000000008152600401610d109061257b565b60405180910390fd5b60008610158015610d2b575060648611155b610d6a576040517f08c379a0000000000000000000000000000000000000000000000000000000008152600401610d61906125e7565b60405180910390fd5b42851015610dad576040517f08c379a0000000000000000000000000000000000000000000000000000000008152600401610da490612653565b60405180910390fd5b848411610def576040517f08c379a0000000000000000000000000000000000000000000000000000000008152600401610de6906126e5565b60405180910390fd5b6000835111610e33576040517f08c379a0000000000000000000000000000000000000000000000000000000008152600401610e2a90612751565b60405180910390fd5b610e603330898b73ffffffffffffffffffffffffffffffffffffffff166115da909392919063ffffffff16565b60006040518061012001604052808a73ffffffffffffffffffffffffffffffffffffffff1681526020018981526020018881526020018781526020018681526020018581526020018481526020016001151581526020013373ffffffffffffffffffffffffffffffffffffffff16815250905060006002805490509050600282908060018154018082558091505060019003906000526020600020906008020160009091909190915060008201518160000160006101000a81548173ffffffffffffffffffffffffffffffffffffffff021916908373ffffffffffffffffffffffffffffffffffffffff1602179055506020820151816001015560408201518160020155606082015181600301556080820151816004015560a0820151816005019081610f8d919061291d565b5060c0820151816006019081610fa3919061291d565b5060e08201518160070160006101000a81548160ff0219169083151502179055506101008201518160070160016101000a81548173ffffffffffffffffffffffffffffffffffffffff021916908373ffffffffffffffffffffffffffffffffffffffff1602179055505050600360003373ffffffffffffffffffffffffffffffffffffffff1673ffffffffffffffffffffffffffffffffffffffff1681526020019081526020016000208190806001815401808255809150506001900390600052602060002001600090919091909150553373ffffffffffffffffffffffffffffffffffffffff168a73ffffffffffffffffffffffffffffffffffffffff16827fac8c16686c9284d0841c211065beada17af722c6e1759bdc4e4bd9ebbe10e7288c8b8b6040516110d6939291906129ef565b60405180910390a480925050506110eb61148c565b979650505050505050565b6110fe611496565b600073ffffffffffffffffffffffffffffffffffffffff168173ffffffffffffffffffffffffffffffffffffffff160361116d576040517f08c379a000000000000000000000000000000000000000000000000000000000815260040161116490612a98565b60405180910390fd5b61117681611514565b50565b6002818154811061118957600080fd5b90600052602060002090600802016000915090508060000160009054906101000a900473ffffffffffffffffffffffffffffffffffffffff16908060010154908060020154908060030154908060040154908060050180546111ea90612105565b80601f016020809104026020016040519081016040528092919081815260200182805461121690612105565b80156112635780601f1061123857610100808354040283529160200191611263565b820191906000526020600020905b81548152906001019060200180831161124657829003601f168201915b50505050509080600601805461127890612105565b80601f01602080910402602001604051908101604052809291908181526020018280546112a490612105565b80156112f15780601f106112c6576101008083540402835291602001916112f1565b820191906000526020600020905b8154815290600101906020018083116112d457829003601f168201915b5050505050908060070160009054906101000a900460ff16908060070160019054906101000a900473ffffffffffffffffffffffffffffffffffffffff16905089565b6000600280549050821061137d576040517f08c379a000000000000000000000000000000000000000000000000000000000815260040161137490612182565b60405180910390fd5b60028281548110611391576113906120a7565b5b906000526020600020906008020160070160009054906101000a900460ff169050919050565b6002600054036113fc576040517f08c379a00000000000000000000000000000000000000000000000000000000081526004016113f390612b04565b60405180910390fd5b6002600081905550565b6114878363a9059cbb60e01b8484604051602401611425929190612b24565b604051602081830303815290604052907bffffffffffffffffffffffffffffffffffffffffffffffffffffffff19166020820180517bffffffffffffffffffffffffffffffffffffffffffffffffffffffff8381831617835250505050611663565b505050565b6001600081905550565b61149e61172b565b73ffffffffffffffffffffffffffffffffffffffff166114bc610bda565b73ffffffffffffffffffffffffffffffffffffffff1614611512576040517f08c379a000000000000000000000000000000000000000000000000000000000815260040161150990612b99565b60405180910390fd5b565b6000600160009054906101000a900473ffffffffffffffffffffffffffffffffffffffff16905081600160006101000a81548173ffffffffffffffffffffffffffffffffffffffff021916908373ffffffffffffffffffffffffffffffffffffffff1602179055508173ffffffffffffffffffffffffffffffffffffffff168173ffffffffffffffffffffffffffffffffffffffff167f8be0079c531659141344cd1fd0a4f28419497f9722a3daafe3b4186f6b6457e060405160405180910390a35050565b61165d846323b872dd60e01b8585856040516024016115fb93929190612bb9565b604051602081830303815290604052907bffffffffffffffffffffffffffffffffffffffffffffffffffffffff19166020820180517bffffffffffffffffffffffffffffffffffffffffffffffffffffffff8381831617835250505050611663565b50505050565b60006116c5826040518060400160405280602081526020017f5361666545524332303a206c6f772d6c6576656c2063616c6c206661696c65648152508573ffffffffffffffffffffffffffffffffffffffff166117339092919063ffffffff16565b90506000815114806116e75750808060200190518101906116e69190612c1c565b5b611726576040517f08c379a000000000000000000000000000000000000000000000000000000000815260040161171d90612cbb565b60405180910390fd5b505050565b600033905090565b6060611742848460008561174b565b90509392505050565b606082471015611790576040517f08c379a000000000000000000000000000000000000000000000000000000000815260040161178790612d4d565b60405180910390fd5b6000808673ffffffffffffffffffffffffffffffffffffffff1685876040516117b99190612db4565b60006040518083038185875af1925050503d80600081146117f6576040519150601f19603f3d011682016040523d82523d6000602084013e6117fb565b606091505b509150915061180c87838387611818565b92505050949350505050565b6060831561187a576000835103611872576118328561188d565b611871576040517f08c379a000000000000000000000000000000000000000000000000000000000815260040161186890612e17565b60405180910390fd5b5b829050611885565b61188483836118b0565b5b949350505050565b6000808273ffffffffffffffffffffffffffffffffffffffff163b119050919050565b6000825111156118c35781518083602001fd5b806040517f08c379a00000000000000000000000000000000000000000000000000000000081526004016118f79190612e37565b60405180910390fd5b604051806101200160405280600073ffffffffffffffffffffffffffffffffffffffff168152602001600081526020016000815260200160008152602001600081526020016060815260200160608152602001600015158152602001600073ffffffffffffffffffffffffffffffffffffffff1681525090565b6000604051905090565b600080fd5b600080fd5b600073ffffffffffffffffffffffffffffffffffffffff82169050919050565b60006119b98261198e565b9050919050565b6119c9816119ae565b81146119d457600080fd5b50565b6000813590506119e6816119c0565b92915050565b600060208284031215611a0257611a01611984565b5b6000611a10848285016119d7565b91505092915050565b600081519050919050565b600082825260208201905092915050565b6000819050602082019050919050565b611a4e816119ae565b82525050565b6000819050919050565b611a6781611a54565b82525050565b600081519050919050565b600082825260208201905092915050565b60005b83811015611aa7578082015181840152602081019050611a8c565b60008484015250505050565b6000601f19601f8301169050919050565b6000611acf82611a6d565b611ad98185611a78565b9350611ae9818560208601611a89565b611af281611ab3565b840191505092915050565b60008115159050919050565b611b1281611afd565b82525050565b600061012083016000830151611b316000860182611a45565b506020830151611b446020860182611a5e565b506040830151611b576040860182611a5e565b506060830151611b6a6060860182611a5e565b506080830151611b7d6080860182611a5e565b5060a083015184820360a0860152611b958282611ac4565b91505060c083015184820360c0860152611baf8282611ac4565b91505060e0830151611bc460e0860182611b09565b50610100830151611bd9610100860182611a45565b508091505092915050565b6000611bf08383611b18565b905092915050565b6000602082019050919050565b6000611c1082611a19565b611c1a8185611a24565b935083602082028501611c2c85611a35565b8060005b85811015611c685784840389528151611c498582611be4565b9450611c5483611bf8565b925060208a01995050600181019050611c30565b50829750879550505050505092915050565b60006020820190508181036000830152611c948184611c05565b905092915050565b611ca581611a54565b8114611cb057600080fd5b50565b600081359050611cc281611c9c565b92915050565b600060208284031215611cde57611cdd611984565b5b6000611cec84828501611cb3565b91505092915050565b60008060408385031215611d0c57611d0b611984565b5b6000611d1a858286016119d7565b9250506020611d2b85828601611cb3565b9150509250929050565b611d3e81611a54565b82525050565b6000602082019050611d596000830184611d35565b92915050565b611d68816119ae565b82525050565b6000602082019050611d836000830184611d5f565b92915050565b600080fd5b600080fd5b7f4e487b7100000000000000000000000000000000000000000000000000000000600052604160045260246000fd5b611dcb82611ab3565b810181811067ffffffffffffffff82111715611dea57611de9611d93565b5b80604052505050565b6000611dfd61197a565b9050611e098282611dc2565b919050565b600067ffffffffffffffff821115611e2957611e28611d93565b5b611e3282611ab3565b9050602081019050919050565b82818337600083830152505050565b6000611e61611e5c84611e0e565b611df3565b905082815260208101848484011115611e7d57611e7c611d8e565b5b611e88848285611e3f565b509392505050565b600082601f830112611ea557611ea4611d89565b5b8135611eb5848260208601611e4e565b91505092915050565b600080600080600080600060e0888a031215611edd57611edc611984565b5b6000611eeb8a828b016119d7565b9750506020611efc8a828b01611cb3565b9650506040611f0d8a828b01611cb3565b9550506060611f1e8a828b01611cb3565b9450506080611f2f8a828b01611cb3565b93505060a088013567ffffffffffffffff811115611f5057611f4f611989565b5b611f5c8a828b01611e90565b92505060c088013567ffffffffffffffff811115611f7d57611f7c611989565b5b611f898a828b01611e90565b91505092959891949750929550565b600082825260208201905092915050565b6000611fb482611a6d565b611fbe8185611f98565b9350611fce818560208601611a89565b611fd781611ab3565b840191505092915050565b611feb81611afd565b82525050565b600061012082019050612007600083018c611d5f565b612014602083018b611d35565b612021604083018a611d35565b61202e6060830189611d35565b61203b6080830188611d35565b81810360a083015261204d8187611fa9565b905081810360c08301526120618186611fa9565b905061207060e0830185611fe2565b61207e610100830184611d5f565b9a9950505050505050505050565b60006020820190506120a16000830184611fe2565b92915050565b7f4e487b7100000000000000000000000000000000000000000000000000000000600052603260045260246000fd5b7f4e487b7100000000000000000000000000000000000000000000000000000000600052602260045260246000fd5b6000600282049050600182168061211d57607f821691505b6020821081036121305761212f6120d6565b5b50919050565b7f496e76616c6964206c6f636b2049440000000000000000000000000000000000600082015250565b600061216c600f83611f98565b915061217782612136565b602082019050919050565b6000602082019050818103600083015261219b8161215f565b9050919050565b7f4e6f7420746865206c6f636b204f776e65720000000000000000000000000000600082015250565b60006121d8601283611f98565b91506121e3826121a2565b602082019050919050565b60006020820190508181036000830152612207816121cb565b9050919050565b7f4c6f636b206973206e6f74204163746976650000000000000000000000000000600082015250565b6000612244601283611f98565b915061224f8261220e565b602082019050919050565b6000602082019050818103600083015261227381612237565b9050919050565b7f4e487b7100000000000000000000000000000000000000000000000000000000600052601160045260246000fd5b60006122b482611a54565b91506122bf83611a54565b92508282026122cd81611a54565b915082820484148315176122e4576122e361227a565b5b5092915050565b7f4e487b7100000000000000000000000000000000000000000000000000000000600052601260045260246000fd5b600061232582611a54565b915061233083611a54565b9250826123405761233f6122eb565b5b828204905092915050565b600061235682611a54565b915061236183611a54565b92508282039050818111156123795761237861227a565b5b92915050565b7f496e76616c6964204c6f636b2049440000000000000000000000000000000000600082015250565b60006123b5600f83611f98565b91506123c08261237f565b602082019050919050565b600060208201905081810360008301526123e4816123a8565b9050919050565b7f4e6f7420746865206c6f636b206f776e65720000000000000000000000000000600082015250565b6000612421601283611f98565b915061242c826123eb565b602082019050919050565b6000602082019050818103600083015261245081612414565b9050919050565b7f4c6f636b20706572696f64206e6f7420656e6465640000000000000000000000600082015250565b600061248d601583611f98565b915061249882612457565b602082019050919050565b600060208201905081810360008301526124bc81612480565b9050919050565b7f496e76616c696420546f6b656e20416464726573730000000000000000000000600082015250565b60006124f9601583611f98565b9150612504826124c3565b602082019050919050565b60006020820190508181036000830152612528816124ec565b9050919050565b7f416d6f756e74206d7573742062652067726561746572207468616e2030000000600082015250565b6000612565601d83611f98565b91506125708261252f565b602082019050919050565b6000602082019050818103600083015261259481612558565b9050919050565b7f496e76616c69642050657263656e746167650000000000000000000000000000600082015250565b60006125d1601283611f98565b91506125dc8261259b565b602082019050919050565b60006020820190508181036000830152612600816125c4565b9050919050565b7f53746172742054696d65206d75737420626520696e2074686520667574757265600082015250565b600061263d602083611f98565b915061264882612607565b602082019050919050565b6000602082019050818103600083015261266c81612630565b9050919050565b7f456e642074696d65206d7573742062652061667465722074686520737461727460008201527f2074696d65000000000000000000000000000000000000000000000000000000602082015250565b60006126cf602583611f98565b91506126da82612673565b604082019050919050565b600060208201905081810360008301526126fe816126c2565b9050919050565b7f5469746c652063616e6e6f7420626520656d7074790000000000000000000000600082015250565b600061273b601583611f98565b915061274682612705565b602082019050919050565b6000602082019050818103600083015261276a8161272e565b9050919050565b60008190508160005260206000209050919050565b60006020601f8301049050919050565b600082821b905092915050565b6000600883026127d37fffffffffffffffffffffffffffffffffffffffffffffffffffffffffffffffff82612796565b6127dd8683612796565b95508019841693508086168417925050509392505050565b6000819050919050565b600061281a61281561281084611a54565b6127f5565b611a54565b9050919050565b6000819050919050565b612834836127ff565b61284861284082612821565b8484546127a3565b825550505050565b600090565b61285d612850565b61286881848461282b565b505050565b5b8181101561288c57612881600082612855565b60018101905061286e565b5050565b601f8211156128d1576128a281612771565b6128ab84612786565b810160208510156128ba578190505b6128ce6128c685612786565b83018261286d565b50505b505050565b600082821c905092915050565b60006128f4600019846008026128d6565b1980831691505092915050565b600061290d83836128e3565b9150826002028217905092915050565b61292682611a6d565b67ffffffffffffffff81111561293f5761293e611d93565b5b6129498254612105565b612954828285612890565b600060209050601f8311600181146129875760008415612975578287015190505b61297f8582612901565b8655506129e7565b601f19841661299586612771565b60005b828110156129bd57848901518255600182019150602085019450602081019050612998565b868310156129da57848901516129d6601f8916826128e3565b8355505b6001600288020188555050505b505050505050565b6000606082019050612a046000830186611d35565b612a116020830185611d35565b612a1e6040830184611d35565b949350505050565b7f4f776e61626c653a206e6577206f776e657220697320746865207a65726f206160008201527f6464726573730000000000000000000000000000000000000000000000000000602082015250565b6000612a82602683611f98565b9150612a8d82612a26565b604082019050919050565b60006020820190508181036000830152612ab181612a75565b9050919050565b7f5265656e7472616e637947756172643a207265656e7472616e742063616c6c00600082015250565b6000612aee601f83611f98565b9150612af982612ab8565b602082019050919050565b60006020820190508181036000830152612b1d81612ae1565b9050919050565b6000604082019050612b396000830185611d5f565b612b466020830184611d35565b9392505050565b7f4f776e61626c653a2063616c6c6572206973206e6f7420746865206f776e6572600082015250565b6000612b83602083611f98565b9150612b8e82612b4d565b602082019050919050565b60006020820190508181036000830152612bb281612b76565b9050919050565b6000606082019050612bce6000830186611d5f565b612bdb6020830185611d5f565b612be86040830184611d35565b949350505050565b612bf981611afd565b8114612c0457600080fd5b50565b600081519050612c1681612bf0565b92915050565b600060208284031215612c3257612c31611984565b5b6000612c4084828501612c07565b91505092915050565b7f5361666545524332303a204552433230206f7065726174696f6e20646964206e60008201527f6f74207375636365656400000000000000000000000000000000000000000000602082015250565b6000612ca5602a83611f98565b9150612cb082612c49565b604082019050919050565b60006020820190508181036000830152612cd481612c98565b9050919050565b7f416464726573733a20696e73756666696369656e742062616c616e636520666f60008201527f722063616c6c0000000000000000000000000000000000000000000000000000602082015250565b6000612d37602683611f98565b9150612d4282612cdb565b604082019050919050565b60006020820190508181036000830152612d6681612d2a565b9050919050565b600081519050919050565b600081905092915050565b6000612d8e82612d6d565b612d988185612d78565b9350612da8818560208601611a89565b80840191505092915050565b6000612dc08284612d83565b915081905092915050565b7f416464726573733a2063616c6c20746f206e6f6e2d636f6e7472616374000000600082015250565b6000612e01601d83611f98565b9150612e0c82612dcb565b602082019050919050565b60006020820190508181036000830152612e3081612df4565b9050919050565b60006020820190508181036000830152612e518184611fa9565b90509291505056fea26469706673582212204f75aac7f56c295c5d4d9f43d6224f42ca4f765ba412d4c10d46416afff4143864736f6c634300081b0033",
  "linkReferences": {},
  "deployedLinkReferences": {}
}